{
  "contractName": "Bidding",
  "abi": [
    {
      "inputs": [
        {
          "internalType": "address",
          "name": "_CentralAuthorityContractAddress",
          "type": "address"
        },
        {
          "internalType": "address",
          "name": "_CreateBidContractAddress",
          "type": "address"
        }
      ],
      "stateMutability": "nonpayable",
      "type": "constructor"
    },
    {
      "inputs": [
        {
          "internalType": "uint256",
          "name": "_tenderNum",
          "type": "uint256"
        }
      ],
      "name": "getOwner",
      "outputs": [
        {
          "internalType": "address",
          "name": "",
          "type": "address"
        }
      ],
      "stateMutability": "nonpayable",
      "type": "function"
    },
    {
      "inputs": [
        {
          "internalType": "uint256",
          "name": "_tenderNum",
          "type": "uint256"
        },
        {
          "internalType": "uint256",
          "name": "_bidValue",
          "type": "uint256"
        },
        {
          "internalType": "uint256",
          "name": "_bidDuration",
          "type": "uint256"
        },
        {
          "internalType": "string[]",
          "name": "_materialNames",
          "type": "string[]"
        },
        {
          "internalType": "uint256[]",
          "name": "_materialQuantities",
          "type": "uint256[]"
        },
        {
          "internalType": "string[]",
          "name": "_materialUnits",
          "type": "string[]"
        },
        {
          "internalType": "uint256[]",
          "name": "_materialPrices",
          "type": "uint256[]"
        }
      ],
      "name": "submitBid",
      "outputs": [],
      "stateMutability": "payable",
      "type": "function",
      "payable": true
    },
    {
      "inputs": [
        {
          "internalType": "uint256",
          "name": "_tenderNum",
          "type": "uint256"
        }
      ],
      "name": "getWinnerBid",
      "outputs": [
        {
          "internalType": "string",
          "name": "",
          "type": "string"
        },
        {
          "internalType": "uint256",
          "name": "",
          "type": "uint256"
        },
        {
          "internalType": "address",
          "name": "",
          "type": "address"
        }
      ],
      "stateMutability": "nonpayable",
      "type": "function"
    },
    {
      "inputs": [
        {
          "internalType": "uint256",
          "name": "_tenderNum",
          "type": "uint256"
        },
        {
          "internalType": "uint256",
          "name": "_newbidDuration",
          "type": "uint256"
        }
      ],
      "name": "allowRebid",
      "outputs": [],
      "stateMutability": "nonpayable",
      "type": "function"
    },
    {
      "inputs": [
        {
          "internalType": "uint256",
          "name": "_tenderNum",
          "type": "uint256"
        },
        {
          "internalType": "uint256",
          "name": "_newBidValue",
          "type": "uint256"
        },
        {
          "internalType": "uint256",
          "name": "_newWorkDuration",
          "type": "uint256"
        },
        {
          "internalType": "string[]",
          "name": "_newMaterialNames",
          "type": "string[]"
        },
        {
          "internalType": "uint256[]",
          "name": "_newMaterialQuantities",
          "type": "uint256[]"
        },
        {
          "internalType": "string[]",
          "name": "_newMaterialUnits",
          "type": "string[]"
        },
        {
          "internalType": "uint256[]",
          "name": "_newMaterialPrices",
          "type": "uint256[]"
        }
      ],
      "name": "submitNewBid",
      "outputs": [],
      "stateMutability": "nonpayable",
      "type": "function"
    },
    {
      "inputs": [
        {
          "internalType": "uint256",
          "name": "_tenderNum",
          "type": "uint256"
        }
      ],
      "name": "getFeeToBeReturned",
      "outputs": [
        {
          "internalType": "uint256",
          "name": "",
          "type": "uint256"
        }
      ],
      "stateMutability": "view",
      "type": "function",
      "constant": true
    },
    {
      "inputs": [
        {
          "internalType": "uint256",
          "name": "_tenderNum",
          "type": "uint256"
        }
      ],
      "name": "returnFee",
      "outputs": [],
      "stateMutability": "payable",
      "type": "function",
      "payable": true
    },
    {
      "inputs": [
        {
          "internalType": "uint256",
          "name": "_tenderNum",
          "type": "uint256"
        }
      ],
      "name": "getWinnerBidDetailes",
      "outputs": [
        {
          "internalType": "string[]",
          "name": "",
          "type": "string[]"
        },
        {
          "internalType": "uint256[]",
          "name": "",
          "type": "uint256[]"
        },
        {
          "internalType": "uint256[]",
          "name": "",
          "type": "uint256[]"
        }
      ],
      "stateMutability": "view",
      "type": "function",
      "constant": true
    }
  ],
  "bytecode": "0x60806040523480156200001157600080fd5b5060405162004d6838038062004d688339818101604052810190620000379190620002a4565b81600260006101000a81548173ffffffffffffffffffffffffffffffffffffffff021916908373ffffffffffffffffffffffffffffffffffffffff16021790555080600360006101000a81548173ffffffffffffffffffffffffffffffffffffffff021916908373ffffffffffffffffffffffffffffffffffffffff160217905550620000c96200016460201b60201c565b600e60019054906101000a900473ffffffffffffffffffffffffffffffffffffffff1673ffffffffffffffffffffffffffffffffffffffff163373ffffffffffffffffffffffffffffffffffffffff16146200015c576040517f08c379a0000000000000000000000000000000000000000000000000000000008152600401620001539062000372565b60405180910390fd5b5050620003c6565b600260009054906101000a900473ffffffffffffffffffffffffffffffffffffffff1673ffffffffffffffffffffffffffffffffffffffff166379093ca16040518163ffffffff1660e01b8152600401602060405180830381865afa158015620001d2573d6000803e3d6000fd5b505050506040513d601f19601f82011682018060405250810190620001f8919062000394565b600e60016101000a81548173ffffffffffffffffffffffffffffffffffffffff021916908373ffffffffffffffffffffffffffffffffffffffff160217905550565b600080fd5b600073ffffffffffffffffffffffffffffffffffffffff82169050919050565b60006200026c826200023f565b9050919050565b6200027e816200025f565b81146200028a57600080fd5b50565b6000815190506200029e8162000273565b92915050565b60008060408385031215620002be57620002bd6200023a565b5b6000620002ce858286016200028d565b9250506020620002e1858286016200028d565b9150509250929050565b600082825260208201905092915050565b7f4f6e6c792063656e7472616c20617574686f726974792063616e206465706c6f60008201527f79207468697320636f6e74726163740000000000000000000000000000000000602082015250565b60006200035a602f83620002eb565b91506200036782620002fc565b604082019050919050565b600060208201905081810360008301526200038d816200034b565b9050919050565b600060208284031215620003ad57620003ac6200023a565b5b6000620003bd848285016200028d565b91505092915050565b61499280620003d66000396000f3fe60806040526004361061007b5760003560e01c8063c124e9e51161004e578063c124e9e514610141578063c41a360a1461015d578063c6348af31461019a578063e7a4c67b146101c35761007b565b80631572de87146100805780632e57c302146100bd5780636509ab2f146100e6578063bb1b193714610102575b600080fd5b34801561008c57600080fd5b506100a760048036038101906100a2919061329c565b610202565b6040516100b491906132d8565b60405180910390f35b3480156100c957600080fd5b506100e460048036038101906100df91906132f3565b610321565b005b61010060048036038101906100fb919061329c565b610623565b005b34801561010e57600080fd5b506101296004803603810190610124919061329c565b610a3f565b6040516101389392919061340d565b60405180910390f35b61015b60048036038101906101569190613729565b6117e2565b005b34801561016957600080fd5b50610184600480360381019061017f919061329c565b611f5b565b604051610191919061383b565b60405180910390f35b3480156101a657600080fd5b506101c160048036038101906101bc9190613729565b611fa4565b005b3480156101cf57600080fd5b506101ea60048036038101906101e5919061329c565b612757565b6040516101f993929190613a20565b60405180910390f35b600080600073ffffffffffffffffffffffffffffffffffffffff166001600085815260200190815260200160002060009054906101000a900473ffffffffffffffffffffffffffffffffffffffff1673ffffffffffffffffffffffffffffffffffffffff16146102ca576001600960008581526020019081526020016000208054905061028f9190613a9b565b670de0b6b3a764000060046000868152602001908152602001600020600301546102b99190613acf565b6102c39190613acf565b9050610318565b6009600084815260200190815260200160002080549050670de0b6b3a7640000600460008681526020019081526020016000206003015461030b9190613acf565b6103159190613acf565b90505b80915050919050565b6001600b6000848152602001908152602001600020805490501161037a576040517f08c379a000000000000000000000000000000000000000000000000000000000815260040161037190613b9b565b60405180910390fd5b6004600083815260200190815260200160002060000160009054906101000a900473ffffffffffffffffffffffffffffffffffffffff1673ffffffffffffffffffffffffffffffffffffffff163373ffffffffffffffffffffffffffffffffffffffff161461041e576040517f08c379a000000000000000000000000000000000000000000000000000000000815260040161041590613c2d565b60405180910390fd5b60016011600084815260200190815260200160002060006101000a81548160ff021916908315150217905550603c816104579190613acf565b426104629190613c4d565b600760008481526020019081526020016000208190555060005b600b60008481526020019081526020016000208054905081101561061e5760011515601060008581526020019081526020016000206000600b600087815260200190815260200160002084815481106104d8576104d7613ca3565b5b9060005260206000200160009054906101000a900473ffffffffffffffffffffffffffffffffffffffff1673ffffffffffffffffffffffffffffffffffffffff1673ffffffffffffffffffffffffffffffffffffffff16815260200190815260200160002060009054906101000a900460ff1615150361060b576000601060008581526020019081526020016000206000600b6000878152602001908152602001600020848154811061058e5761058d613ca3565b5b9060005260206000200160009054906101000a900473ffffffffffffffffffffffffffffffffffffffff1673ffffffffffffffffffffffffffffffffffffffff1673ffffffffffffffffffffffffffffffffffffffff16815260200190815260200160002060006101000a81548160ff0219169083151502179055505b808061061690613cd2565b91505061047c565b505050565b60006009600083815260200190815260200160002080549050670de0b6b3a764000060046000858152602001908152602001600020600301546106669190613acf565b6106709190613acf565b90506004600083815260200190815260200160002060000160009054906101000a900473ffffffffffffffffffffffffffffffffffffffff1673ffffffffffffffffffffffffffffffffffffffff163373ffffffffffffffffffffffffffffffffffffffff1614610716576040517f08c379a000000000000000000000000000000000000000000000000000000000815260040161070d90613d66565b60405180910390fd5b80341015610759576040517f08c379a000000000000000000000000000000000000000000000000000000000815260040161075090613dd2565b60405180910390fd5b6008600083815260200190815260200160002060009054906101000a900460ff16156107ba576040517f08c379a00000000000000000000000000000000000000000000000000000000081526004016107b190613e3e565b60405180910390fd5b600060076000848152602001908152602001600020540361082f576006600083815260200190815260200160002054421161082a576040517f08c379a000000000000000000000000000000000000000000000000000000000815260040161082190613ed0565b60405180910390fd5b610885565b60076000838152602001908152602001600020544211610884576040517f08c379a000000000000000000000000000000000000000000000000000000000815260040161087b90613f62565b60405180910390fd5b5b6000670de0b6b3a764000060046000858152602001908152602001600020600301546108b19190613acf565b905060005b6009600085815260200190815260200160002080549050811015610a39576001600085815260200190815260200160002060009054906101000a900473ffffffffffffffffffffffffffffffffffffffff1673ffffffffffffffffffffffffffffffffffffffff1660096000868152602001908152602001600020828154811061094357610942613ca3565b5b9060005260206000200160009054906101000a900473ffffffffffffffffffffffffffffffffffffffff1673ffffffffffffffffffffffffffffffffffffffff1614610a265760006009600086815260200190815260200160002082815481106109b0576109af613ca3565b5b9060005260206000200160009054906101000a900473ffffffffffffffffffffffffffffffffffffffff1690508073ffffffffffffffffffffffffffffffffffffffff166108fc849081150290604051600060405180830381858888f19350505050158015610a23573d6000803e3d6000fd5b50505b8080610a3190613cd2565b9150506108b6565b50505050565b60606000806000600a60008681526020019081526020016000208054905003610a9d576040517f08c379a0000000000000000000000000000000000000000000000000000000008152600401610a9490613ff4565b60405180910390fd5b6000600760008681526020019081526020016000205403610b125760066000858152602001908152602001600020544211610b0d576040517f08c379a0000000000000000000000000000000000000000000000000000000008152600401610b0490613ed0565b60405180910390fd5b610b68565b60076000858152602001908152602001600020544211610b67576040517f08c379a0000000000000000000000000000000000000000000000000000000008152600401610b5e90613f62565b60405180910390fd5b5b600073ffffffffffffffffffffffffffffffffffffffff166001600086815260200190815260200160002060009054906101000a900473ffffffffffffffffffffffffffffffffffffffff1673ffffffffffffffffffffffffffffffffffffffff1614610c0a576040517f08c379a0000000000000000000000000000000000000000000000000000000008152600401610c0190614086565b60405180910390fd5b600b60008581526020019081526020016000206000610c29919061307d565b60006011600086815260200190815260200160002060006101000a81548160ff0219169083151502179055506000600a600086815260200190815260200160002080549050905060008167ffffffffffffffff811115610c8c57610c8b613450565b5b604051908082528060200260200182016040528015610cba5781602001602082028036833780820191505090505b50905060008267ffffffffffffffff811115610cd957610cd8613450565b5b604051908082528060200260200182016040528015610d075781602001602082028036833780820191505090505b50905060005b83811015610e63576000600a60008a81526020019081526020016000208281548110610d3c57610d3b613ca3565b5b9060005260206000200160009054906101000a900473ffffffffffffffffffffffffffffffffffffffff169050600c60008a815260200190815260200160002060008273ffffffffffffffffffffffffffffffffffffffff1673ffffffffffffffffffffffffffffffffffffffff16815260200190815260200160002060000154848381518110610dd057610dcf613ca3565b5b602002602001018181525050600c60008a815260200190815260200160002060008273ffffffffffffffffffffffffffffffffffffffff1673ffffffffffffffffffffffffffffffffffffffff16815260200190815260200160002060010154838381518110610e4357610e42613ca3565b5b602002602001018181525050508080610e5b90613cd2565b915050610d0d565b50600082600081518110610e7a57610e79613ca3565b5b602002602001015190506000600167ffffffffffffffff811115610ea157610ea0613450565b5b604051908082528060200260200182016040528015610ecf5781602001602082028036833780820191505090505b509050600081600081518110610ee857610ee7613ca3565b5b6020026020010181815250506000600190505b858110156110cb5782858281518110610f1757610f16613ca3565b5b60200260200101511015610fb857848181518110610f3857610f37613ca3565b5b6020026020010151925060609150600167ffffffffffffffff811115610f6157610f60613450565b5b604051908082528060200260200182016040528015610f8f5781602001602082028036833780820191505090505b5091508082600081518110610fa757610fa6613ca3565b5b6020026020010181815250506110b8565b82858281518110610fcc57610fcb613ca3565b5b6020026020010151036110b7576000825190506000600182610fee9190613c4d565b67ffffffffffffffff81111561100757611006613450565b5b6040519080825280602002602001820160405280156110355781602001602082028036833780820191505090505b50905060005b828110156110905784818151811061105657611055613ca3565b5b602002602001015182828151811061107157611070613ca3565b5b602002602001018181525050808061108890613cd2565b91505061103b565b50828183815181106110a5576110a4613ca3565b5b60200260200101818152505080935050505b5b80806110c390613cd2565b915050610efb565b50600181510361124f5783816000815181106110ea576110e9613ca3565b5b60200260200101518151811061110357611102613ca3565b5b60200260200101516000808b815260200190815260200160002081905550600a60008a81526020019081526020016000208160008151811061114857611147613ca3565b5b60200260200101518154811061116157611160613ca3565b5b9060005260206000200160009054906101000a900473ffffffffffffffffffffffffffffffffffffffff16600160008b815260200190815260200160002060006101000a81548173ffffffffffffffffffffffffffffffffffffffff021916908373ffffffffffffffffffffffffffffffffffffffff1602179055506000808a815260200190815260200160002054600160008b815260200190815260200160002060009054906101000a900473ffffffffffffffffffffffffffffffffffffffff166040518060600160405280602a81526020016148bf602a9139919097509750975050505050506117db565b6000838260008151811061126657611265613ca3565b5b60200260200101518151811061127f5761127e613ca3565b5b602002602001015190506000600167ffffffffffffffff8111156112a6576112a5613450565b5b6040519080825280602002602001820160405280156112d45781602001602082028036833780820191505090505b509050826000815181106112eb576112ea613ca3565b5b60200260200101518160008151811061130757611306613ca3565b5b60200260200101818152505060005b835181101561150757600084828151811061133457611333613ca3565b5b602002602001015190508387828151811061135257611351613ca3565b5b602002602001015110156113f35786818151811061137357611372613ca3565b5b6020026020010151935060609250600167ffffffffffffffff81111561139c5761139b613450565b5b6040519080825280602002602001820160405280156113ca5781602001602082028036833780820191505090505b50925080836000815181106113e2576113e1613ca3565b5b6020026020010181815250506114f3565b8387828151811061140757611406613ca3565b5b6020026020010151036114f25760008351905060006001826114299190613c4d565b67ffffffffffffffff81111561144257611441613450565b5b6040519080825280602002602001820160405280156114705781602001602082028036833780820191505090505b50905060005b828110156114cb5785818151811061149157611490613ca3565b5b60200260200101518282815181106114ac576114ab613ca3565b5b60200260200101818152505080806114c390613cd2565b915050611476565b50828183815181106114e0576114df613ca3565b5b60200260200101818152505080945050505b5b5080806114ff90613cd2565b915050611316565b50600181510361168d57858160008151811061152657611525613ca3565b5b60200260200101518151811061153f5761153e613ca3565b5b60200260200101516000808d815260200190815260200160002081905550600a60008c81526020019081526020016000208160008151811061158457611583613ca3565b5b60200260200101518154811061159d5761159c613ca3565b5b9060005260206000200160009054906101000a900473ffffffffffffffffffffffffffffffffffffffff16600160008d815260200190815260200160002060006101000a81548173ffffffffffffffffffffffffffffffffffffffff021916908373ffffffffffffffffffffffffffffffffffffffff1602179055506000808c815260200190815260200160002054600160008d815260200190815260200160002060009054906101000a900473ffffffffffffffffffffffffffffffffffffffff166040518060600160405280602d8152602001614930602d91399190995099509950505050505050506117db565b60005b815181101561178f5760008282815181106116ae576116ad613ca3565b5b60200260200101519050600b60008e8152602001908152602001600020600a60008f815260200190815260200160002082815481106116f0576116ef613ca3565b5b9060005260206000200160009054906101000a900473ffffffffffffffffffffffffffffffffffffffff169080600181540180825580915050600190039060005260206000200160009091909190916101000a81548173ffffffffffffffffffffffffffffffffffffffff021916908373ffffffffffffffffffffffffffffffffffffffff16021790555050808061178790613cd2565b915050611690565b50600a60008c815260200190815260200160002060006117af919061307d565b6000806040518060800160405280604781526020016148e9604791399190995099509950505050505050505b9193909250565b6117eb87612c81565b6117f433612fc3565b600166038d7ea4c68000600460008a81526020019081526020016000206003015461181f9190613acf565b6118299190613acf565b34101561186b576040517f08c379a0000000000000000000000000000000000000000000000000000000008152600401611862906140f2565b60405180910390fd5b600e60009054906101000a900460ff166118ba576040517f08c379a00000000000000000000000000000000000000000000000000000000081526004016118b19061415e565b60405180910390fd5b6004600088815260200190815260200160002060000160009054906101000a900473ffffffffffffffffffffffffffffffffffffffff1673ffffffffffffffffffffffffffffffffffffffff163373ffffffffffffffffffffffffffffffffffffffff160361195e576040517f08c379a0000000000000000000000000000000000000000000000000000000008152600401611955906141ca565b60405180910390fd5b600f600088815260200190815260200160002060003373ffffffffffffffffffffffffffffffffffffffff1673ffffffffffffffffffffffffffffffffffffffff16815260200190815260200160002060009054906101000a900460ff16156119fc576040517f08c379a00000000000000000000000000000000000000000000000000000000081526004016119f390614236565b60405180910390fd5b83516005600089815260200190815260200160002054148015611a32575082516005600089815260200190815260200160002054145b8015611a51575081516005600089815260200190815260200160002054145b8015611a70575080516005600089815260200190815260200160002054145b611aaf576040517f08c379a0000000000000000000000000000000000000000000000000000000008152600401611aa6906142a2565b60405180910390fd5b60066000888152602001908152602001600020544210611b04576040517f08c379a0000000000000000000000000000000000000000000000000000000008152600401611afb90614334565b60405180910390fd5b60006004600089815260200190815260200160002060000160009054906101000a900473ffffffffffffffffffffffffffffffffffffffff1690508073ffffffffffffffffffffffffffffffffffffffff166108fc600166038d7ea4c68000600460008d815260200190815260200160002060030154611b849190613acf565b611b8e9190613acf565b9081150290604051600060405180830381858888f19350505050158015611bb9573d6000803e3d6000fd5b506000600960008a8152602001908152602001600020339080600181540180825580915050600190039060005260206000200160009091909190916101000a81548173ffffffffffffffffffffffffffffffffffffffff021916908373ffffffffffffffffffffffffffffffffffffffff1602179055506001600f60008b815260200190815260200160002060003373ffffffffffffffffffffffffffffffffffffffff1673ffffffffffffffffffffffffffffffffffffffff16815260200190815260200160002060006101000a81548160ff021916908315150217905550604051806040016040528089815260200188815250600c60008b815260200190815260200160002060003373ffffffffffffffffffffffffffffffffffffffff1673ffffffffffffffffffffffffffffffffffffffff168152602001908152602001600020600082015181600001556020820151816001015590505060005b8651811015611ed357600d60008b815260200190815260200160002060003373ffffffffffffffffffffffffffffffffffffffff1673ffffffffffffffffffffffffffffffffffffffff1681526020019081526020016000206040518060800160405280898481518110611d8f57611d8e613ca3565b5b60200260200101518152602001888481518110611daf57611dae613ca3565b5b60200260200101518152602001878481518110611dcf57611dce613ca3565b5b60200260200101518152602001868481518110611def57611dee613ca3565b5b602002602001015181525090806001815401808255809150506001900390600052602060002090600402016000909190919091506000820151816000019080519060200190611e3f92919061309e565b50602082015181600101556040820151816002019080519060200190611e6692919061309e565b50606082015181600301555050838181518110611e8657611e85613ca3565b5b6020026020010151868281518110611ea157611ea0613ca3565b5b6020026020010151611eb39190613acf565b82611ebe9190613c4d565b91508080611ecb90613cd2565b915050611d18565b50878103611f5057600a60008a8152602001908152602001600020339080600181540180825580915050600190039060005260206000200160009091909190916101000a81548173ffffffffffffffffffffffffffffffffffffffff021916908373ffffffffffffffffffffffffffffffffffffffff1602179055505b505050505050505050565b6000611f6682612c81565b6004600083815260200190815260200160002060000160009054906101000a900473ffffffffffffffffffffffffffffffffffffffff169050919050565b6004600088815260200190815260200160002060000160009054906101000a900473ffffffffffffffffffffffffffffffffffffffff1673ffffffffffffffffffffffffffffffffffffffff163373ffffffffffffffffffffffffffffffffffffffff1603612048576040517f08c379a000000000000000000000000000000000000000000000000000000000815260040161203f906141ca565b60405180910390fd5b6011600088815260200190815260200160002060009054906101000a900460ff166120a8576040517f08c379a000000000000000000000000000000000000000000000000000000000815260040161209f906143c6565b60405180910390fd5b600760008881526020019081526020016000205442106120fd576040517f08c379a00000000000000000000000000000000000000000000000000000000081526004016120f490614334565b60405180910390fd5b61210687612c81565b8351600560008981526020019081526020016000205414801561213c575082516005600089815260200190815260200160002054145b801561215b575081516005600089815260200190815260200160002054145b801561217a575080516005600089815260200190815260200160002054145b6121b9576040517f08c379a00000000000000000000000000000000000000000000000000000000081526004016121b0906142a2565b60405180910390fd5b60005b600b60008981526020019081526020016000208054905081101561274d57600b600089815260200190815260200160002081815481106121ff576121fe613ca3565b5b9060005260206000200160009054906101000a900473ffffffffffffffffffffffffffffffffffffffff1673ffffffffffffffffffffffffffffffffffffffff163373ffffffffffffffffffffffffffffffffffffffff160361273a5760001515601060008a815260200190815260200160002060003373ffffffffffffffffffffffffffffffffffffffff1673ffffffffffffffffffffffffffffffffffffffff16815260200190815260200160002060009054906101000a900460ff16151514612300576040517f08c379a00000000000000000000000000000000000000000000000000000000081526004016122f790614432565b60405180910390fd5b6001601060008a815260200190815260200160002060003373ffffffffffffffffffffffffffffffffffffffff1673ffffffffffffffffffffffffffffffffffffffff16815260200190815260200160002060006101000a81548160ff0219169083151502179055506000604051806040016040528089815260200188815250600c60008b815260200190815260200160002060003373ffffffffffffffffffffffffffffffffffffffff1673ffffffffffffffffffffffffffffffffffffffff168152602001908152602001600020600082015181600001556020820151816001015590505060005b86518110156126bb5786818151811061240657612405613ca3565b5b6020026020010151600d60008c815260200190815260200160002060003373ffffffffffffffffffffffffffffffffffffffff1673ffffffffffffffffffffffffffffffffffffffff16815260200190815260200160002082815481106124705761246f613ca3565b5b9060005260206000209060040201600001908051906020019061249492919061309e565b508581815181106124a8576124a7613ca3565b5b6020026020010151600d60008c815260200190815260200160002060003373ffffffffffffffffffffffffffffffffffffffff1673ffffffffffffffffffffffffffffffffffffffff168152602001908152602001600020828154811061251257612511613ca3565b5b90600052602060002090600402016001018190555084818151811061253a57612539613ca3565b5b6020026020010151600d60008c815260200190815260200160002060003373ffffffffffffffffffffffffffffffffffffffff1673ffffffffffffffffffffffffffffffffffffffff16815260200190815260200160002082815481106125a4576125a3613ca3565b5b906000526020600020906004020160020190805190602001906125c892919061309e565b508381815181106125dc576125db613ca3565b5b6020026020010151600d60008c815260200190815260200160002060003373ffffffffffffffffffffffffffffffffffffffff1673ffffffffffffffffffffffffffffffffffffffff168152602001908152602001600020828154811061264657612645613ca3565b5b90600052602060002090600402016003018190555083818151811061266e5761266d613ca3565b5b602002602001015186828151811061268957612688613ca3565b5b602002602001015161269b9190613acf565b826126a69190613c4d565b915080806126b390613cd2565b9150506123ea565b5087810361273857600a60008a8152602001908152602001600020339080600181540180825580915050600190039060005260206000200160009091909190916101000a81548173ffffffffffffffffffffffffffffffffffffffff021916908373ffffffffffffffffffffffffffffffffffffffff1602179055505b505b808061274590613cd2565b9150506121bc565b5050505050505050565b6060806060600073ffffffffffffffffffffffffffffffffffffffff166001600086815260200190815260200160002060009054906101000a900473ffffffffffffffffffffffffffffffffffffffff1673ffffffffffffffffffffffffffffffffffffffff16036127fe576040517f08c379a00000000000000000000000000000000000000000000000000000000081526004016127f59061449e565b60405180910390fd5b6000600d600086815260200190815260200160002060006001600088815260200190815260200160002060009054906101000a900473ffffffffffffffffffffffffffffffffffffffff1673ffffffffffffffffffffffffffffffffffffffff1673ffffffffffffffffffffffffffffffffffffffff16815260200190815260200160002080549050905060008167ffffffffffffffff8111156128a5576128a4613450565b5b6040519080825280602002602001820160405280156128d857816020015b60608152602001906001900390816128c35790505b50905060008267ffffffffffffffff8111156128f7576128f6613450565b5b6040519080825280602002602001820160405280156129255781602001602082028036833780820191505090505b50905060008367ffffffffffffffff81111561294457612943613450565b5b6040519080825280602002602001820160405280156129725781602001602082028036833780820191505090505b50905060005b84811015612c6c57600d60008a81526020019081526020016000206000600160008c815260200190815260200160002060009054906101000a900473ffffffffffffffffffffffffffffffffffffffff1673ffffffffffffffffffffffffffffffffffffffff1673ffffffffffffffffffffffffffffffffffffffff1681526020019081526020016000208181548110612a1557612a14613ca3565b5b90600052602060002090600402016000018054612a31906144ed565b80601f0160208091040260200160405190810160405280929190818152602001828054612a5d906144ed565b8015612aaa5780601f10612a7f57610100808354040283529160200191612aaa565b820191906000526020600020905b815481529060010190602001808311612a8d57829003601f168201915b5050505050848281518110612ac257612ac1613ca3565b5b6020026020010181905250600d60008a81526020019081526020016000206000600160008c815260200190815260200160002060009054906101000a900473ffffffffffffffffffffffffffffffffffffffff1673ffffffffffffffffffffffffffffffffffffffff1673ffffffffffffffffffffffffffffffffffffffff1681526020019081526020016000208181548110612b6257612b61613ca3565b5b906000526020600020906004020160010154838281518110612b8757612b86613ca3565b5b602002602001018181525050600d60008a81526020019081526020016000206000600160008c815260200190815260200160002060009054906101000a900473ffffffffffffffffffffffffffffffffffffffff1673ffffffffffffffffffffffffffffffffffffffff1673ffffffffffffffffffffffffffffffffffffffff1681526020019081526020016000208181548110612c2857612c27613ca3565b5b906000526020600020906004020160030154828281518110612c4d57612c4c613ca3565b5b6020026020010181815250508080612c6490613cd2565b915050612978565b50828282965096509650505050509193909250565b600360009054906101000a900473ffffffffffffffffffffffffffffffffffffffff1673ffffffffffffffffffffffffffffffffffffffff16634d6cc65a826040518263ffffffff1660e01b8152600401612cdc91906132d8565b608060405180830381865afa158015612cf9573d6000803e3d6000fd5b505050506040513d601f19601f82011682018060405250810190612d1d919061455f565b600460008681526020019081526020016000206000016000600460008881526020019081526020016000206001016000600460008a81526020019081526020016000206002016000600460008c815260200190815260200160002060030160008891905055879190505586919050558591906101000a81548173ffffffffffffffffffffffffffffffffffffffff021916908373ffffffffffffffffffffffffffffffffffffffff16021790555050505050600360009054906101000a900473ffffffffffffffffffffffffffffffffffffffff1673ffffffffffffffffffffffffffffffffffffffff1663366de7d5826040518263ffffffff1660e01b8152600401612e2a91906132d8565b600060405180830381865afa158015612e47573d6000803e3d6000fd5b505050506040513d6000823e3d601f19601f82011682018060405250810190612e709190614782565b600460008681526020019081526020016000206004016000600460008881526020019081526020016000206005016000600460008a81526020019081526020016000206006016000600460008c81526020019081526020016000206007016000889190509080519060200190612ee7929190613124565b50879190509080519060200190612eff929190613171565b50869190509080519060200190612f17929190613124565b50859190509080519060200190612f2f929190613171565b505050505060046000828152602001908152602001600020600401805490506005600083815260200190815260200160002081905550603c6004600083815260200190815260200160002060020154612f889190613acf565b6004600083815260200190815260200160002060010154612fa99190613c4d565b600660008381526020019081526020016000208190555050565b600260009054906101000a900473ffffffffffffffffffffffffffffffffffffffff1673ffffffffffffffffffffffffffffffffffffffff1663b8574a1e826040518263ffffffff1660e01b815260040161301e919061383b565b6020604051808303816000875af115801561303d573d6000803e3d6000fd5b505050506040513d601f19601f820116820180604052508101906130619190614891565b600e60006101000a81548160ff02191690831515021790555050565b508054600082559060005260206000209081019061309b91906131d1565b50565b8280546130aa906144ed565b90600052602060002090601f0160209004810192826130cc5760008555613113565b82601f106130e557805160ff1916838001178555613113565b82800160010185558215613113579182015b828111156131125782518255916020019190600101906130f7565b5b50905061312091906131d1565b5090565b828054828255906000526020600020908101928215613160579160200282015b8281111561315f578251825591602001919060010190613144565b5b50905061316d91906131d1565b5090565b8280548282559060005260206000209081019282156131c0579160200282015b828111156131bf5782518290805190602001906131af92919061309e565b5091602001919060010190613191565b5b5090506131cd91906131ee565b5090565b5b808211156131ea5760008160009055506001016131d2565b5090565b5b8082111561320e57600081816132059190613212565b506001016131ef565b5090565b50805461321e906144ed565b6000825580601f10613230575061324f565b601f01602090049060005260206000209081019061324e91906131d1565b5b50565b6000604051905090565b600080fd5b600080fd5b6000819050919050565b61327981613266565b811461328457600080fd5b50565b60008135905061329681613270565b92915050565b6000602082840312156132b2576132b161325c565b5b60006132c084828501613287565b91505092915050565b6132d281613266565b82525050565b60006020820190506132ed60008301846132c9565b92915050565b6000806040838503121561330a5761330961325c565b5b600061331885828601613287565b925050602061332985828601613287565b9150509250929050565b600081519050919050565b600082825260208201905092915050565b60005b8381101561336d578082015181840152602081019050613352565b8381111561337c576000848401525b50505050565b6000601f19601f8301169050919050565b600061339e82613333565b6133a8818561333e565b93506133b881856020860161334f565b6133c181613382565b840191505092915050565b600073ffffffffffffffffffffffffffffffffffffffff82169050919050565b60006133f7826133cc565b9050919050565b613407816133ec565b82525050565b600060608201905081810360008301526134278186613393565b905061343660208301856132c9565b61344360408301846133fe565b949350505050565b600080fd5b7f4e487b7100000000000000000000000000000000000000000000000000000000600052604160045260246000fd5b61348882613382565b810181811067ffffffffffffffff821117156134a7576134a6613450565b5b80604052505050565b60006134ba613252565b90506134c6828261347f565b919050565b600067ffffffffffffffff8211156134e6576134e5613450565b5b602082029050602081019050919050565b600080fd5b600080fd5b600067ffffffffffffffff82111561351c5761351b613450565b5b61352582613382565b9050602081019050919050565b82818337600083830152505050565b600061355461354f84613501565b6134b0565b9050828152602081018484840111156135705761356f6134fc565b5b61357b848285613532565b509392505050565b600082601f8301126135985761359761344b565b5b81356135a8848260208601613541565b91505092915050565b60006135c46135bf846134cb565b6134b0565b905080838252602082019050602084028301858111156135e7576135e66134f7565b5b835b8181101561362e57803567ffffffffffffffff81111561360c5761360b61344b565b5b8086016136198982613583565b855260208501945050506020810190506135e9565b5050509392505050565b600082601f83011261364d5761364c61344b565b5b813561365d8482602086016135b1565b91505092915050565b600067ffffffffffffffff82111561368157613680613450565b5b602082029050602081019050919050565b60006136a56136a084613666565b6134b0565b905080838252602082019050602084028301858111156136c8576136c76134f7565b5b835b818110156136f157806136dd8882613287565b8452602084019350506020810190506136ca565b5050509392505050565b600082601f8301126137105761370f61344b565b5b8135613720848260208601613692565b91505092915050565b600080600080600080600060e0888a0312156137485761374761325c565b5b60006137568a828b01613287565b97505060206137678a828b01613287565b96505060406137788a828b01613287565b955050606088013567ffffffffffffffff81111561379957613798613261565b5b6137a58a828b01613638565b945050608088013567ffffffffffffffff8111156137c6576137c5613261565b5b6137d28a828b016136fb565b93505060a088013567ffffffffffffffff8111156137f3576137f2613261565b5b6137ff8a828b01613638565b92505060c088013567ffffffffffffffff8111156138205761381f613261565b5b61382c8a828b016136fb565b91505092959891949750929550565b600060208201905061385060008301846133fe565b92915050565b600081519050919050565b600082825260208201905092915050565b6000819050602082019050919050565b600082825260208201905092915050565b600061389e82613333565b6138a88185613882565b93506138b881856020860161334f565b6138c181613382565b840191505092915050565b60006138d88383613893565b905092915050565b6000602082019050919050565b60006138f882613856565b6139028185613861565b93508360208202850161391485613872565b8060005b85811015613950578484038952815161393185826138cc565b945061393c836138e0565b925060208a01995050600181019050613918565b50829750879550505050505092915050565b600081519050919050565b600082825260208201905092915050565b6000819050602082019050919050565b61399781613266565b82525050565b60006139a9838361398e565b60208301905092915050565b6000602082019050919050565b60006139cd82613962565b6139d7818561396d565b93506139e28361397e565b8060005b83811015613a135781516139fa888261399d565b9750613a05836139b5565b9250506001810190506139e6565b5085935050505092915050565b60006060820190508181036000830152613a3a81866138ed565b90508181036020830152613a4e81856139c2565b90508181036040830152613a6281846139c2565b9050949350505050565b7f4e487b7100000000000000000000000000000000000000000000000000000000600052601160045260246000fd5b6000613aa682613266565b9150613ab183613266565b925082821015613ac457613ac3613a6c565b5b828203905092915050565b6000613ada82613266565b9150613ae583613266565b9250817fffffffffffffffffffffffffffffffffffffffffffffffffffffffffffffffff0483118215151615613b1e57613b1d613a6c565b5b828202905092915050565b7f546865726520697320612077696e6e696e67206269642c20626964732063616e60008201527f6e6f742062652072657375626d69747465640000000000000000000000000000602082015250565b6000613b8560328361333e565b9150613b9082613b29565b604082019050919050565b60006020820190508181036000830152613bb481613b78565b9050919050565b7f4f6e6c7920626964206f776e65722043616e20616c6c6f772072652d7375626d60008201527f6974206269640000000000000000000000000000000000000000000000000000602082015250565b6000613c1760268361333e565b9150613c2282613bbb565b604082019050919050565b60006020820190508181036000830152613c4681613c0a565b9050919050565b6000613c5882613266565b9150613c6383613266565b9250827fffffffffffffffffffffffffffffffffffffffffffffffffffffffffffffffff03821115613c9857613c97613a6c565b5b828201905092915050565b7f4e487b7100000000000000000000000000000000000000000000000000000000600052603260045260246000fd5b6000613cdd82613266565b91507fffffffffffffffffffffffffffffffffffffffffffffffffffffffffffffffff8203613d0f57613d0e613a6c565b5b600182019050919050565b7f4f776e6572206f6e6c792063616e2072657475726e2066656500000000000000600082015250565b6000613d5060198361333e565b9150613d5b82613d1a565b602082019050919050565b60006020820190508181036000830152613d7f81613d43565b9050919050565b7f496e73756666696369656e742045746865722073656e74000000000000000000600082015250565b6000613dbc60178361333e565b9150613dc782613d86565b602082019050919050565b60006020820190508181036000830152613deb81613daf565b9050919050565b7f46656573206861766520616c72656164792072657475726e6564000000000000600082015250565b6000613e28601a8361333e565b9150613e3382613df2565b602082019050919050565b60006020820190508181036000830152613e5781613e1b565b9050919050565b7f5468652074696d6520666f72207375626d697373696f6e206f6620626964732060008201527f6861736e277420656e6465640000000000000000000000000000000000000000602082015250565b6000613eba602c8361333e565b9150613ec582613e5e565b604082019050919050565b60006020820190508181036000830152613ee981613ead565b9050919050565b7f5468652074696d6520666f722072652d7375626d697373696f6e206f6620626960008201527f6473206861736e277420656e6465640000000000000000000000000000000000602082015250565b6000613f4c602f8361333e565b9150613f5782613ef0565b604082019050919050565b60006020820190508181036000830152613f7b81613f3f565b9050919050565b7f4e6f20626964732061636365707465642c206e6f2077696e6e696e672062696460008201527f6465720000000000000000000000000000000000000000000000000000000000602082015250565b6000613fde60238361333e565b9150613fe982613f82565b604082019050919050565b6000602082019050818103600083015261400d81613fd1565b9050919050565b7f5468652077696e6e696e672062696420686173206265656e2073656c6563746560008201527f6400000000000000000000000000000000000000000000000000000000000000602082015250565b600061407060218361333e565b915061407b82614014565b604082019050919050565b6000602082019050818103600083015261409f81614063565b9050919050565b7f496e73756666696369656e74206d6f6e65792073656e74000000000000000000600082015250565b60006140dc60178361333e565b91506140e7826140a6565b602082019050919050565b6000602082019050818103600083015261410b816140cf565b9050919050565b7f596f7520617265206e6f7420617574686f72697a656420436f6d70616e790000600082015250565b6000614148601e8361333e565b915061415382614112565b602082019050919050565b600060208201905081810360008301526141778161413b565b9050919050565b7f4f776e65722043616e2774206269640000000000000000000000000000000000600082015250565b60006141b4600f8361333e565b91506141bf8261417e565b602082019050919050565b600060208201905081810360008301526141e3816141a7565b9050919050565b7f596f75206861766520616c7265616479207375626d6974206120626964000000600082015250565b6000614220601d8361333e565b915061422b826141ea565b602082019050919050565b6000602082019050818103600083015261424f81614213565b9050919050565b7f496e76616c696420696e70757420646174610000000000000000000000000000600082015250565b600061428c60128361333e565b915061429782614256565b602082019050919050565b600060208201905081810360008301526142bb8161427f565b9050919050565b7f5468652074696d6520666f72207375626d697373696f6e206f6620626964732060008201527f68617320656e6465640000000000000000000000000000000000000000000000602082015250565b600061431e60298361333e565b9150614329826142c2565b604082019050919050565b6000602082019050818103600083015261434d81614311565b9050919050565b7f546865204f776e657220646964206e6f7420616c6c6f77206e6577206269647360008201527f20746f206265207375626d697474656400000000000000000000000000000000602082015250565b60006143b060308361333e565b91506143bb82614354565b604082019050919050565b600060208201905081810360008301526143df816143a3565b9050919050565b7f596f75206861766520616c72656164792072652d7375626d6974206120626964600082015250565b600061441c60208361333e565b9150614427826143e6565b602082019050919050565b6000602082019050818103600083015261444b8161440f565b9050919050565b7f4e6f2077696e6e657220776173206f627461696e656400000000000000000000600082015250565b600061448860168361333e565b915061449382614452565b602082019050919050565b600060208201905081810360008301526144b78161447b565b9050919050565b7f4e487b7100000000000000000000000000000000000000000000000000000000600052602260045260246000fd5b6000600282049050600182168061450557607f821691505b602082108103614518576145176144be565b5b50919050565b614527816133ec565b811461453257600080fd5b50565b6000815190506145448161451e565b92915050565b60008151905061455981613270565b92915050565b600080600080608085870312156145795761457861325c565b5b600061458787828801614535565b94505060206145988782880161454a565b93505060406145a98782880161454a565b92505060606145ba8782880161454a565b91505092959194509250565b60006145d96145d484613501565b6134b0565b9050828152602081018484840111156145f5576145f46134fc565b5b61460084828561334f565b509392505050565b600082601f83011261461d5761461c61344b565b5b815161462d8482602086016145c6565b91505092915050565b6000614649614644846134cb565b6134b0565b9050808382526020820190506020840283018581111561466c5761466b6134f7565b5b835b818110156146b357805167ffffffffffffffff8111156146915761469061344b565b5b80860161469e8982614608565b8552602085019450505060208101905061466e565b5050509392505050565b600082601f8301126146d2576146d161344b565b5b81516146e2848260208601614636565b91505092915050565b60006146fe6146f984613666565b6134b0565b90508083825260208201905060208402830185811115614721576147206134f7565b5b835b8181101561474a5780614736888261454a565b845260208401935050602081019050614723565b5050509392505050565b600082601f8301126147695761476861344b565b5b81516147798482602086016146eb565b91505092915050565b6000806000806080858703121561479c5761479b61325c565b5b600085015167ffffffffffffffff8111156147ba576147b9613261565b5b6147c6878288016146bd565b945050602085015167ffffffffffffffff8111156147e7576147e6613261565b5b6147f387828801614754565b935050604085015167ffffffffffffffff81111561481457614813613261565b5b614820878288016146bd565b925050606085015167ffffffffffffffff81111561484157614840613261565b5b61484d87828801614754565b91505092959194509250565b60008115159050919050565b61486e81614859565b811461487957600080fd5b50565b60008151905061488b81614865565b92915050565b6000602082840312156148a7576148a661325c565b5b60006148b58482850161487c565b9150509291505056fe5468652077696e6e696e672062696420686173206265656e2073656c65637465642062792076616c75655468657265206973206e6f2077696e6e696e67206269642c20657175616c2062696464657273206d75737420626520616c6c6f77656420746f2072657375626d697420626964735468652077696e6e696e672062696420686173206265656e2073656c6563746564206279206475726174696f6ea2646970667358221220ac6bfe89a63563623efba2df9212e7d245178fefaefd19d19feeee856992c82e64736f6c634300080d0033",
  "immutableReferences": {},
  "source": "// SPDX-License-Identifier: GPL-3.0\r\npragma solidity >=0.7.0 <0.9.0;\r\n\r\ninterface CentralAuthorityContractData {\r\n    function CheckCompanyAuth(address _address) external returns (bool);\r\n    function getCentralAuthorityAddress() external view returns (address);\r\n}\r\n\r\ninterface GetRequiredTenderDetailes {\r\n    function getTenderAnnouncement(uint _tenderNum) external view returns (address, uint, uint, uint);\r\n    function getTenderDetailes(uint _tenderNum) external view returns (string[] memory, uint[] memory, string[] memory, uint[] memory);\r\n}\r\n\r\ncontract Bidding {\r\n    // Winning Bid and Bidder\r\n    mapping (uint => uint) winnerBid;\r\n    mapping (uint => address) winnerBidder;\r\n\r\n    // Variables to store Central Authority and Create Bid contract Addresses\r\n    address CentralAuthorityContractAddress;\r\n    address CreateBidContractAddress;\r\n\r\n    // Required tender details\r\n    struct RequiredTender{\r\n        address owner;\r\n        uint publishTime;\r\n        uint duration;\r\n        uint fee;        \r\n        string[] materialsDetaile;\r\n        uint[] materialsQuantity;\r\n        string[] materialsunit;\r\n        uint[] materialsPrice;\r\n    }\r\n\r\n    mapping (uint => RequiredTender) requiredTender;\r\n\r\n    mapping (uint => uint) jobCount;\r\n    mapping (uint => uint) biddingEndTime;\r\n    mapping (uint => uint) newBiddingEndTime;\r\n    \r\n    mapping (uint => bool) feeReturned;\r\n\r\n    // Submitted bids details\r\n    struct Bid{\r\n        uint value;\r\n        uint duration;\r\n    }\r\n\r\n    struct BidDetailes {        \r\n        string materialNames;\r\n        uint materialQuantities;\r\n        string materialUnits;\r\n        uint materialPrices;\r\n    }\r\n\r\n    // Store all bidder addresses\r\n    mapping (uint => address[]) bidders;\r\n\r\n    // Store accepted bidder addresses\r\n    mapping (uint => address[]) acceptedBidders;\r\n\r\n    // Store equal bidder addresses\r\n    mapping (uint => address[]) equalBidders;\r\n\r\n    // Store each bidder's bid\r\n    mapping (uint => mapping(address => Bid)) bids;\r\n\r\n    // Store each bid detailes\r\n    mapping (uint => mapping(address => BidDetailes[])) bidsDetailes;\r\n\r\n    // Variables to store necessary data from another contracts\r\n    bool authorized;\r\n    address centralAuthority;\r\n\r\n    // Check if the bidder submitted a bid previously\r\n    mapping (uint => mapping (address => bool)) bidSubmitted;\r\n    mapping (uint => mapping (address => bool)) newBidSubmitted;\r\n    \r\n    mapping (uint => bool) rebidAllowed;\r\n\r\n    constructor(address _CentralAuthorityContractAddress, address _CreateBidContractAddress) {\r\n        CentralAuthorityContractAddress = _CentralAuthorityContractAddress;\r\n        CreateBidContractAddress = _CreateBidContractAddress;\r\n        getCentralAuthority();\r\n        require(msg.sender == centralAuthority, \"Only central authority can deploy this contract\");\r\n    }\r\n\r\n    function CheckCompany(address _address) internal {\r\n        authorized = CentralAuthorityContractData(CentralAuthorityContractAddress).CheckCompanyAuth(_address);\r\n    }\r\n\r\n    function getCentralAuthority() internal {\r\n        centralAuthority = CentralAuthorityContractData(CentralAuthorityContractAddress).getCentralAuthorityAddress();\r\n    }\r\n\r\n    // Get the required data for a bid\r\n    function getBidData(uint _tenderNum) internal {\r\n        (requiredTender[_tenderNum].owner, requiredTender[_tenderNum].publishTime, requiredTender[_tenderNum].duration, requiredTender[_tenderNum].fee) = GetRequiredTenderDetailes(CreateBidContractAddress).getTenderAnnouncement(_tenderNum);\r\n        (requiredTender[_tenderNum].materialsDetaile, requiredTender[_tenderNum].materialsQuantity, requiredTender[_tenderNum].materialsunit, requiredTender[_tenderNum].materialsPrice)= GetRequiredTenderDetailes(CreateBidContractAddress).getTenderDetailes(_tenderNum);\r\n        jobCount[_tenderNum] = requiredTender[_tenderNum].materialsDetaile.length;\r\n        biddingEndTime[_tenderNum] = requiredTender[_tenderNum].publishTime + (requiredTender[_tenderNum].duration * 1 minutes);\r\n    }\r\n\r\n    function getOwner(uint _tenderNum) public returns (address){\r\n         getBidData(_tenderNum);\r\n         return (requiredTender[_tenderNum].owner);\r\n    }\r\n\r\n\r\n    function submitBid(uint _tenderNum, uint _bidValue, uint _bidDuration, string[] memory _materialNames, uint[] memory _materialQuantities, string[] memory _materialUnits, uint[] memory _materialPrices) public payable {\r\n        getBidData(_tenderNum);\r\n        CheckCompany(msg.sender);\r\n        require(msg.value >= (requiredTender[_tenderNum].fee * (10 ** 15) * 1 wei), \"Insufficient money sent\");\r\n        require(authorized, \"You are not authorized Company\");\r\n        require(msg.sender != requiredTender[_tenderNum].owner, \"Owner Can't bid\");\r\n        require(!bidSubmitted[_tenderNum][msg.sender], \"You have already submit a bid\");\r\n        require(jobCount[_tenderNum] ==_materialNames.length && jobCount[_tenderNum] == _materialQuantities.length && jobCount[_tenderNum] == _materialUnits.length && jobCount[_tenderNum] == _materialPrices.length, \"Invalid input data\");\r\n        require(block.timestamp < biddingEndTime[_tenderNum], \"The time for submission of bids has ended\");\r\n\r\n        address payable owner = payable (requiredTender[_tenderNum].owner);\r\n        owner.transfer(requiredTender[_tenderNum].fee * (10 ** 15) * 1 wei);\r\n\r\n        uint sum = 0;\r\n\r\n        bidders[_tenderNum].push(msg.sender);\r\n        bidSubmitted[_tenderNum][msg.sender] = true;\r\n\r\n        bids[_tenderNum][msg.sender] = Bid(_bidValue,_bidDuration);\r\n\r\n        for (uint i = 0; i < _materialNames.length; i++) \r\n        {\r\n            bidsDetailes[_tenderNum][msg.sender].push(BidDetailes({\r\n                materialNames: _materialNames[i],\r\n                materialQuantities: _materialQuantities[i],\r\n                materialUnits: _materialUnits[i],\r\n                materialPrices: _materialPrices[i]\r\n            }));\r\n            sum += (_materialQuantities[i] * _materialPrices[i]);\r\n        }\r\n\r\n        // Check if bid accepted add bidder address to accepted bidder\r\n        if (sum == _bidValue) {\r\n            acceptedBidders[_tenderNum].push(msg.sender);\r\n        }\r\n    }\r\n\r\n    function getWinnerBid(uint _tenderNum) public returns(string memory, uint, address) {\r\n        require(acceptedBidders[_tenderNum].length != 0, \"No bids accepted, no winning bidder\");\r\n        if (newBiddingEndTime[_tenderNum] == 0) {\r\n            require(block.timestamp > biddingEndTime[_tenderNum], \"The time for submission of bids hasn't ended\");\r\n        } else {\r\n            require(block.timestamp > newBiddingEndTime[_tenderNum], \"The time for re-submission of bids hasn't ended\");\r\n        }\r\n        require(winnerBidder[_tenderNum] == address(0), \"The winning bid has been selected\");\r\n        delete equalBidders[_tenderNum];\r\n\r\n        rebidAllowed[_tenderNum] = false;\r\n\r\n        // Return all values and durations by bidders\r\n        uint biddersCount = acceptedBidders[_tenderNum].length;\r\n        uint[] memory values = new uint[](biddersCount);\r\n        uint[] memory durations = new uint[](biddersCount);\r\n\r\n        for (uint i = 0; i < biddersCount; i++) \r\n        {\r\n            address bidder = acceptedBidders[_tenderNum][i];\r\n            values[i] = bids[_tenderNum][bidder].value;\r\n            durations[i] = bids[_tenderNum][bidder].duration;\r\n        }\r\n\r\n        uint smallestValue = values[0];\r\n        uint[] memory smallestValueIndexes = new uint[](1);\r\n        smallestValueIndexes[0] = 0;\r\n\r\n        for (uint j = 1; j < biddersCount; j++) \r\n        {\r\n            if (values[j] < smallestValue) {\r\n                smallestValue = values[j];\r\n                delete smallestValueIndexes;\r\n                smallestValueIndexes = new uint[](1);\r\n                smallestValueIndexes[0] = j;\r\n            } else if (values[j] == smallestValue) {\r\n                uint newSmallestValueIndex = smallestValueIndexes.length;\r\n                uint[] memory newSmallestValueIndexes = new uint[](newSmallestValueIndex + 1);\r\n                for (uint k = 0; k < newSmallestValueIndex; k++) \r\n                {\r\n                    newSmallestValueIndexes[k] = smallestValueIndexes[k];\r\n                }\r\n                newSmallestValueIndexes[newSmallestValueIndex] = j;\r\n                smallestValueIndexes = newSmallestValueIndexes;\r\n            }\r\n        }\r\n\r\n        if (smallestValueIndexes.length == 1) {\r\n            winnerBid[_tenderNum] = values[smallestValueIndexes[0]];\r\n            winnerBidder[_tenderNum] = acceptedBidders[_tenderNum][smallestValueIndexes[0]];\r\n            return (\"The winning bid has been selected by value\", winnerBid[_tenderNum], winnerBidder[_tenderNum]);\r\n        } else {\r\n            uint smallestDuration = durations[smallestValueIndexes[0]];\r\n            uint[] memory smallestDurationIndexes = new uint[](1);\r\n            smallestDurationIndexes[0] = smallestValueIndexes[0];\r\n\r\n            for (uint m = 0; m < smallestValueIndexes.length; m++) \r\n            {\r\n                uint currentIndex = smallestValueIndexes[m];\r\n                if (durations[currentIndex] < smallestDuration) {\r\n                    smallestDuration = durations[currentIndex];\r\n                    delete smallestDurationIndexes;\r\n                    smallestDurationIndexes = new uint[](1);\r\n                    smallestDurationIndexes[0] = currentIndex;\r\n                } else if (durations[currentIndex] == smallestDuration) {\r\n                    uint newSmallestDurationIndex = smallestDurationIndexes.length;\r\n                    uint[] memory newSmallestDurationIndexes = new uint[](newSmallestDurationIndex + 1);\r\n                    for (uint n = 0; n < newSmallestDurationIndex; n++) \r\n                    {\r\n                        newSmallestDurationIndexes[n] = smallestDurationIndexes[n];\r\n                    }\r\n                    newSmallestDurationIndexes[newSmallestDurationIndex] = currentIndex;\r\n                    smallestDurationIndexes = newSmallestDurationIndexes;\r\n                }\r\n            }\r\n\r\n            if (smallestDurationIndexes.length == 1) {\r\n                winnerBid[_tenderNum] = values[smallestDurationIndexes[0]];\r\n                winnerBidder[_tenderNum] = acceptedBidders[_tenderNum][smallestDurationIndexes[0]];\r\n                return (\"The winning bid has been selected by duration\", winnerBid[_tenderNum], winnerBidder[_tenderNum]);\r\n            } else {\r\n                for (uint p = 0; p < smallestDurationIndexes.length; p++) \r\n                {\r\n                    uint index = smallestDurationIndexes[p];\r\n                    equalBidders[_tenderNum].push(acceptedBidders[_tenderNum][index]);\r\n                }\r\n                delete acceptedBidders[_tenderNum];\r\n                return (\"There is no winning bid, equal bidders must be allowed to resubmit bids\", 0, address(0));\r\n            }\r\n        }\r\n    }\r\n\r\n    function allowRebid(uint _tenderNum, uint _newbidDuration) public {     \r\n        require(equalBidders[_tenderNum].length > 1,\"There is a winning bid, bids cannot be resubmitted\");\r\n        require(msg.sender == requiredTender[_tenderNum].owner, \"Only bid owner Can allow re-submit bid\");\r\n\r\n        rebidAllowed[_tenderNum] = true;\r\n        newBiddingEndTime[_tenderNum] = block.timestamp + (_newbidDuration * 1 minutes);\r\n\r\n        for (uint i = 0; i < equalBidders[_tenderNum].length; i++)\r\n        {                       \r\n            if (newBidSubmitted[_tenderNum][equalBidders[_tenderNum][i]] == true) {\r\n                newBidSubmitted[_tenderNum][equalBidders[_tenderNum][i]] = false;\r\n            }            \r\n        }\r\n    }\r\n\r\n    function submitNewBid(uint _tenderNum, uint _newBidValue, uint _newWorkDuration, string[] memory _newMaterialNames, uint[] memory _newMaterialQuantities, string[] memory _newMaterialUnits, uint[] memory _newMaterialPrices) public {\r\n        require(msg.sender != requiredTender[_tenderNum].owner, \"Owner Can't bid\");\r\n        require(rebidAllowed[_tenderNum], \"The Owner did not allow new bids to be submitted\");\r\n        require(block.timestamp < newBiddingEndTime[_tenderNum], \"The time for submission of bids has ended\");  \r\n        getBidData(_tenderNum);\r\n        require(jobCount[_tenderNum] ==_newMaterialNames.length && jobCount[_tenderNum] == _newMaterialQuantities.length && jobCount[_tenderNum] ==_newMaterialUnits.length && jobCount[_tenderNum] == _newMaterialPrices.length, \"Invalid input data\");\r\n        \r\n        \r\n\r\n        for (uint i = 0; i < equalBidders[_tenderNum].length; i++) \r\n        {            \r\n            if (msg.sender == equalBidders[_tenderNum][i]) {\r\n                require(newBidSubmitted[_tenderNum][msg.sender] == false, \"You have already re-submit a bid\");\r\n                newBidSubmitted[_tenderNum][msg.sender] = true;\r\n                uint sum = 0;\r\n                bids[_tenderNum][msg.sender] = Bid(_newBidValue,_newWorkDuration);\r\n                for (uint j = 0; j < _newMaterialNames.length; j++) \r\n                {\r\n                    \r\n                    bidsDetailes[_tenderNum][msg.sender][j].materialNames = _newMaterialNames[j];\r\n                    bidsDetailes[_tenderNum][msg.sender][j].materialQuantities = _newMaterialQuantities[j];\r\n                    bidsDetailes[_tenderNum][msg.sender][j].materialUnits = _newMaterialUnits[j];\r\n                    bidsDetailes[_tenderNum][msg.sender][j].materialPrices = _newMaterialPrices[j];\r\n                    sum += (_newMaterialQuantities[j] * _newMaterialPrices[j]);\r\n                }\r\n\r\n                // Check if bid accepted add bidder address to accepted bidder\r\n                if (sum == _newBidValue) {\r\n                    acceptedBidders[_tenderNum].push(msg.sender);\r\n                }\r\n            }\r\n        }\r\n    }\r\n\r\n    function getFeeToBeReturned(uint _tenderNum) public view returns (uint){\r\n        uint totalCompensation;\r\n        if (winnerBidder[_tenderNum] != address(0)) {\r\n            totalCompensation = ((requiredTender[_tenderNum].fee * 1 ether) * (bidders[_tenderNum].length - 1));\r\n        } else {\r\n            totalCompensation = ((requiredTender[_tenderNum].fee * 1 ether) * (bidders[_tenderNum].length));\r\n        }\r\n        return (totalCompensation);\r\n    }\r\n\r\n    function returnFee(uint _tenderNum) public payable {\r\n        uint totalCompensation = ((requiredTender[_tenderNum].fee * 1 ether) * (bidders[_tenderNum].length));\r\n        \r\n        require(msg.sender == requiredTender[_tenderNum].owner, \"Owner only can return fee\");\r\n        require(msg.value >= totalCompensation, \"Insufficient Ether sent\");\r\n        require(!feeReturned[_tenderNum], \"Fees have already returned\");\r\n        if (newBiddingEndTime[_tenderNum] == 0) {\r\n            require(block.timestamp > biddingEndTime[_tenderNum], \"The time for submission of bids hasn't ended\");\r\n        } else {\r\n            require(block.timestamp > newBiddingEndTime[_tenderNum], \"The time for re-submission of bids hasn't ended\");\r\n        }\r\n        \r\n        uint eachCompensation = requiredTender[_tenderNum].fee * 1 ether;\r\n\r\n        for (uint256 i = 0; i < bidders[_tenderNum].length; i++) \r\n        {\r\n            if (bidders[_tenderNum][i] != winnerBidder[_tenderNum]) {\r\n                address payable excluded = payable(bidders[_tenderNum][i]);\r\n                excluded.transfer(eachCompensation);\r\n            }\r\n        }\r\n    }\r\n\r\n\r\n    function getWinnerBidDetailes(uint _tenderNum) external view returns (string[] memory, uint[] memory, uint[] memory){\r\n        require(winnerBidder[_tenderNum] != address(0), \"No winner was obtained\");\r\n        uint dataCount = bidsDetailes[_tenderNum][winnerBidder[_tenderNum]].length;\r\n        string [] memory detailes = new string[](dataCount);\r\n        uint[] memory quantities = new uint[](dataCount);\r\n        uint[] memory prices = new uint[](dataCount);\r\n\r\n        for (uint i = 0; i < dataCount; i++) \r\n        {\r\n            detailes[i] = bidsDetailes[_tenderNum][winnerBidder[_tenderNum]][i].materialNames;\r\n            quantities[i] = bidsDetailes[_tenderNum][winnerBidder[_tenderNum]][i].materialQuantities;\r\n            prices[i] = bidsDetailes[_tenderNum][winnerBidder[_tenderNum]][i].materialPrices;\r\n        }\r\n\r\n        return (detailes, quantities, prices);\r\n    }\r\n}",
  "sourcePath": "D:\\Programming\\Projects\\BlockChain\\Web\\CSC\\contracts\\Bidding.sol",
  "compiler": {
    "name": "solc",
    "version": "0.8.13+commit.abaa5c0e.Emscripten.clang"
  },
  "schemaVersion": "3.4.16",
  "updatedAt": "2024-04-02T05:47:34.619Z",
  "networkType": "ethereum",
  "devdoc": {
    "kind": "dev",
    "methods": {},
    "version": 1
  },
  "userdoc": {
    "kind": "user",
    "methods": {},
    "version": 1
  }
}