{
  "contractName": "CentralAuthority",
  "abi": [
    {
      "inputs": [],
      "stateMutability": "nonpayable",
      "type": "constructor"
    },
    {
      "inputs": [
        {
          "internalType": "address",
          "name": "",
          "type": "address"
        }
      ],
      "name": "companies",
      "outputs": [
        {
          "internalType": "string",
          "name": "name",
          "type": "string"
        },
        {
          "internalType": "uint256",
          "name": "phone",
          "type": "uint256"
        },
        {
          "internalType": "string",
          "name": "email",
          "type": "string"
        },
        {
          "internalType": "string",
          "name": "city",
          "type": "string"
        },
        {
          "internalType": "string",
          "name": "workType",
          "type": "string"
        },
        {
          "internalType": "bool",
          "name": "authorized",
          "type": "bool"
        },
        {
          "internalType": "bool",
          "name": "existed",
          "type": "bool"
        }
      ],
      "stateMutability": "view",
      "type": "function",
      "constant": true
    },
    {
      "inputs": [
        {
          "internalType": "uint256",
          "name": "",
          "type": "uint256"
        }
      ],
      "name": "companiesAddresses",
      "outputs": [
        {
          "internalType": "address",
          "name": "",
          "type": "address"
        }
      ],
      "stateMutability": "view",
      "type": "function",
      "constant": true
    },
    {
      "inputs": [
        {
          "internalType": "address",
          "name": "_address",
          "type": "address"
        },
        {
          "internalType": "string",
          "name": "_name",
          "type": "string"
        },
        {
          "internalType": "uint256",
          "name": "_phone",
          "type": "uint256"
        },
        {
          "internalType": "string",
          "name": "_email",
          "type": "string"
        },
        {
          "internalType": "string",
          "name": "_city",
          "type": "string"
        },
        {
          "internalType": "string",
          "name": "_workType",
          "type": "string"
        }
      ],
      "name": "addCompany",
      "outputs": [],
      "stateMutability": "nonpayable",
      "type": "function"
    },
    {
      "inputs": [
        {
          "internalType": "address",
          "name": "_address",
          "type": "address"
        }
      ],
      "name": "deleteCompany",
      "outputs": [],
      "stateMutability": "nonpayable",
      "type": "function"
    },
    {
      "inputs": [
        {
          "internalType": "address",
          "name": "_address",
          "type": "address"
        }
      ],
      "name": "unAuthorizeCompany",
      "outputs": [],
      "stateMutability": "nonpayable",
      "type": "function"
    },
    {
      "inputs": [
        {
          "internalType": "address",
          "name": "_address",
          "type": "address"
        }
      ],
      "name": "authorizeCompany",
      "outputs": [],
      "stateMutability": "nonpayable",
      "type": "function"
    },
    {
      "inputs": [
        {
          "internalType": "address",
          "name": "_address",
          "type": "address"
        }
      ],
      "name": "getCompanyDetails",
      "outputs": [
        {
          "internalType": "string",
          "name": "",
          "type": "string"
        },
        {
          "internalType": "uint256",
          "name": "",
          "type": "uint256"
        },
        {
          "internalType": "string",
          "name": "",
          "type": "string"
        },
        {
          "internalType": "string",
          "name": "",
          "type": "string"
        },
        {
          "internalType": "string",
          "name": "",
          "type": "string"
        },
        {
          "internalType": "bool",
          "name": "",
          "type": "bool"
        }
      ],
      "stateMutability": "view",
      "type": "function",
      "constant": true
    },
    {
      "inputs": [
        {
          "internalType": "address",
          "name": "_address",
          "type": "address"
        }
      ],
      "name": "CheckCompanyAuth",
      "outputs": [
        {
          "internalType": "bool",
          "name": "",
          "type": "bool"
        }
      ],
      "stateMutability": "view",
      "type": "function",
      "constant": true
    },
    {
      "inputs": [
        {
          "internalType": "address",
          "name": "_address",
          "type": "address"
        }
      ],
      "name": "getCompanyWorkType",
      "outputs": [
        {
          "internalType": "string",
          "name": "",
          "type": "string"
        }
      ],
      "stateMutability": "view",
      "type": "function",
      "constant": true
    },
    {
      "inputs": [],
      "name": "getCentralAuthorityAddress",
      "outputs": [
        {
          "internalType": "address",
          "name": "",
          "type": "address"
        }
      ],
      "stateMutability": "view",
      "type": "function",
      "constant": true
    }
  ],
  "bytecode": "0x608060405234801561001057600080fd5b50336000806101000a81548173ffffffffffffffffffffffffffffffffffffffff021916908373ffffffffffffffffffffffffffffffffffffffff160217905550611ad4806100606000396000f3fe608060405234801561001057600080fd5b506004361061009e5760003560e01c806379093ca11161006657806379093ca11461018a5780639cf83bfd146101a8578063a451ba01146101c4578063b8574a1e146101e0578063fbf257ea146102105761009e565b80630558d3e9146100a35780630faa4ddc146100d85780631737159b14610108578063355e6ce8146101385780634eb7aff31461016e575b600080fd5b6100bd60048036038101906100b89190611308565b61022c565b6040516100cf96959493929190611402565b60405180910390f35b6100f260048036038101906100ed91906114ab565b610617565b6040516100ff91906114e7565b60405180910390f35b610122600480360381019061011d9190611308565b610656565b60405161012f9190611502565b60405180910390f35b610152600480360381019061014d9190611308565b61072a565b6040516101659796959493929190611524565b60405180910390f35b610188600480360381019061018391906116e4565b6109a6565b005b610192610c68565b60405161019f91906114e7565b60405180910390f35b6101c260048036038101906101bd9190611308565b610c91565b005b6101de60048036038101906101d99190611308565b610e0c565b005b6101fa60048036038101906101f59190611308565b611017565b60405161020791906117e1565b60405180910390f35b61022a60048036038101906102259190611308565b611070565b005b6060600060608060606000600260008873ffffffffffffffffffffffffffffffffffffffff1673ffffffffffffffffffffffffffffffffffffffff168152602001908152602001600020600001600260008973ffffffffffffffffffffffffffffffffffffffff1673ffffffffffffffffffffffffffffffffffffffff16815260200190815260200160002060010154600260008a73ffffffffffffffffffffffffffffffffffffffff1673ffffffffffffffffffffffffffffffffffffffff168152602001908152602001600020600201600260008b73ffffffffffffffffffffffffffffffffffffffff1673ffffffffffffffffffffffffffffffffffffffff168152602001908152602001600020600301600260008c73ffffffffffffffffffffffffffffffffffffffff1673ffffffffffffffffffffffffffffffffffffffff168152602001908152602001600020600401600260008d73ffffffffffffffffffffffffffffffffffffffff1673ffffffffffffffffffffffffffffffffffffffff16815260200190815260200160002060050160009054906101000a900460ff168580546103de9061182b565b80601f016020809104026020016040519081016040528092919081815260200182805461040a9061182b565b80156104575780601f1061042c57610100808354040283529160200191610457565b820191906000526020600020905b81548152906001019060200180831161043a57829003601f168201915b5050505050955083805461046a9061182b565b80601f01602080910402602001604051908101604052809291908181526020018280546104969061182b565b80156104e35780601f106104b8576101008083540402835291602001916104e3565b820191906000526020600020905b8154815290600101906020018083116104c657829003601f168201915b505050505093508280546104f69061182b565b80601f01602080910402602001604051908101604052809291908181526020018280546105229061182b565b801561056f5780601f106105445761010080835404028352916020019161056f565b820191906000526020600020905b81548152906001019060200180831161055257829003601f168201915b505050505092508180546105829061182b565b80601f01602080910402602001604051908101604052809291908181526020018280546105ae9061182b565b80156105fb5780601f106105d0576101008083540402835291602001916105fb565b820191906000526020600020905b8154815290600101906020018083116105de57829003601f168201915b5050505050915095509550955095509550955091939550919395565b6001818154811061062757600080fd5b906000526020600020016000915054906101000a900473ffffffffffffffffffffffffffffffffffffffff1681565b6060600260008373ffffffffffffffffffffffffffffffffffffffff1673ffffffffffffffffffffffffffffffffffffffff16815260200190815260200160002060040180546106a59061182b565b80601f01602080910402602001604051908101604052809291908181526020018280546106d19061182b565b801561071e5780601f106106f35761010080835404028352916020019161071e565b820191906000526020600020905b81548152906001019060200180831161070157829003601f168201915b50505050509050919050565b600260205280600052604060002060009150905080600001805461074d9061182b565b80601f01602080910402602001604051908101604052809291908181526020018280546107799061182b565b80156107c65780601f1061079b576101008083540402835291602001916107c6565b820191906000526020600020905b8154815290600101906020018083116107a957829003601f168201915b5050505050908060010154908060020180546107e19061182b565b80601f016020809104026020016040519081016040528092919081815260200182805461080d9061182b565b801561085a5780601f1061082f5761010080835404028352916020019161085a565b820191906000526020600020905b81548152906001019060200180831161083d57829003601f168201915b50505050509080600301805461086f9061182b565b80601f016020809104026020016040519081016040528092919081815260200182805461089b9061182b565b80156108e85780601f106108bd576101008083540402835291602001916108e8565b820191906000526020600020905b8154815290600101906020018083116108cb57829003601f168201915b5050505050908060040180546108fd9061182b565b80601f01602080910402602001604051908101604052809291908181526020018280546109299061182b565b80156109765780601f1061094b57610100808354040283529160200191610976565b820191906000526020600020905b81548152906001019060200180831161095957829003601f168201915b5050505050908060050160009054906101000a900460ff16908060050160019054906101000a900460ff16905087565b60008054906101000a900473ffffffffffffffffffffffffffffffffffffffff1673ffffffffffffffffffffffffffffffffffffffff163373ffffffffffffffffffffffffffffffffffffffff1614610a34576040517f08c379a0000000000000000000000000000000000000000000000000000000008152600401610a2b906118ce565b60405180910390fd5b600260008773ffffffffffffffffffffffffffffffffffffffff1673ffffffffffffffffffffffffffffffffffffffff16815260200190815260200160002060050160019054906101000a900460ff1615610ac4576040517f08c379a0000000000000000000000000000000000000000000000000000000008152600401610abb9061193a565b60405180910390fd5b6040518060e0016040528086815260200185815260200184815260200183815260200182815260200160011515815260200160011515815250600260008873ffffffffffffffffffffffffffffffffffffffff1673ffffffffffffffffffffffffffffffffffffffff1681526020019081526020016000206000820151816000019080519060200190610b589291906111b3565b50602082015181600101556040820151816002019080519060200190610b7f9291906111b3565b506060820151816003019080519060200190610b9c9291906111b3565b506080820151816004019080519060200190610bb99291906111b3565b5060a08201518160050160006101000a81548160ff02191690831515021790555060c08201518160050160016101000a81548160ff0219169083151502179055509050506001869080600181540180825580915050600190039060005260206000200160009091909190916101000a81548173ffffffffffffffffffffffffffffffffffffffff021916908373ffffffffffffffffffffffffffffffffffffffff160217905550505050505050565b60008060009054906101000a900473ffffffffffffffffffffffffffffffffffffffff16905090565b60008054906101000a900473ffffffffffffffffffffffffffffffffffffffff1673ffffffffffffffffffffffffffffffffffffffff163373ffffffffffffffffffffffffffffffffffffffff1614610d1f576040517f08c379a0000000000000000000000000000000000000000000000000000000008152600401610d16906118ce565b60405180910390fd5b600260008273ffffffffffffffffffffffffffffffffffffffff1673ffffffffffffffffffffffffffffffffffffffff16815260200190815260200160002060050160009054906101000a900460ff16610dae576040517f08c379a0000000000000000000000000000000000000000000000000000000008152600401610da5906119a6565b60405180910390fd5b6000600260008373ffffffffffffffffffffffffffffffffffffffff1673ffffffffffffffffffffffffffffffffffffffff16815260200190815260200160002060050160006101000a81548160ff02191690831515021790555050565b60008054906101000a900473ffffffffffffffffffffffffffffffffffffffff1673ffffffffffffffffffffffffffffffffffffffff163373ffffffffffffffffffffffffffffffffffffffff1614610e9a576040517f08c379a0000000000000000000000000000000000000000000000000000000008152600401610e91906118ce565b60405180910390fd5b600260008273ffffffffffffffffffffffffffffffffffffffff1673ffffffffffffffffffffffffffffffffffffffff16815260200190815260200160002060050160019054906101000a900460ff16610f29576040517f08c379a0000000000000000000000000000000000000000000000000000000008152600401610f2090611a12565b60405180910390fd5b600260008273ffffffffffffffffffffffffffffffffffffffff1673ffffffffffffffffffffffffffffffffffffffff16815260200190815260200160002060050160009054906101000a900460ff1615610fb9576040517f08c379a0000000000000000000000000000000000000000000000000000000008152600401610fb090611a7e565b60405180910390fd5b6001600260008373ffffffffffffffffffffffffffffffffffffffff1673ffffffffffffffffffffffffffffffffffffffff16815260200190815260200160002060050160006101000a81548160ff02191690831515021790555050565b6000600260008373ffffffffffffffffffffffffffffffffffffffff1673ffffffffffffffffffffffffffffffffffffffff16815260200190815260200160002060050160009054906101000a900460ff169050919050565b60008054906101000a900473ffffffffffffffffffffffffffffffffffffffff1673ffffffffffffffffffffffffffffffffffffffff163373ffffffffffffffffffffffffffffffffffffffff16146110fe576040517f08c379a00000000000000000000000000000000000000000000000000000000081526004016110f5906118ce565b60405180910390fd5b600260008273ffffffffffffffffffffffffffffffffffffffff1673ffffffffffffffffffffffffffffffffffffffff1681526020019081526020016000206000808201600061114e9190611239565b60018201600090556002820160006111669190611239565b6003820160006111769190611239565b6004820160006111869190611239565b6005820160006101000a81549060ff02191690556005820160016101000a81549060ff0219169055505050565b8280546111bf9061182b565b90600052602060002090601f0160209004810192826111e15760008555611228565b82601f106111fa57805160ff1916838001178555611228565b82800160010185558215611228579182015b8281111561122757825182559160200191906001019061120c565b5b5090506112359190611279565b5090565b5080546112459061182b565b6000825580601f106112575750611276565b601f0160209004906000526020600020908101906112759190611279565b5b50565b5b8082111561129257600081600090555060010161127a565b5090565b6000604051905090565b600080fd5b600080fd5b600073ffffffffffffffffffffffffffffffffffffffff82169050919050565b60006112d5826112aa565b9050919050565b6112e5816112ca565b81146112f057600080fd5b50565b600081359050611302816112dc565b92915050565b60006020828403121561131e5761131d6112a0565b5b600061132c848285016112f3565b91505092915050565b600081519050919050565b600082825260208201905092915050565b60005b8381101561136f578082015181840152602081019050611354565b8381111561137e576000848401525b50505050565b6000601f19601f8301169050919050565b60006113a082611335565b6113aa8185611340565b93506113ba818560208601611351565b6113c381611384565b840191505092915050565b6000819050919050565b6113e1816113ce565b82525050565b60008115159050919050565b6113fc816113e7565b82525050565b600060c082019050818103600083015261141c8189611395565b905061142b60208301886113d8565b818103604083015261143d8187611395565b905081810360608301526114518186611395565b905081810360808301526114658185611395565b905061147460a08301846113f3565b979650505050505050565b611488816113ce565b811461149357600080fd5b50565b6000813590506114a58161147f565b92915050565b6000602082840312156114c1576114c06112a0565b5b60006114cf84828501611496565b91505092915050565b6114e1816112ca565b82525050565b60006020820190506114fc60008301846114d8565b92915050565b6000602082019050818103600083015261151c8184611395565b905092915050565b600060e082019050818103600083015261153e818a611395565b905061154d60208301896113d8565b818103604083015261155f8188611395565b905081810360608301526115738187611395565b905081810360808301526115878186611395565b905061159660a08301856113f3565b6115a360c08301846113f3565b98975050505050505050565b600080fd5b600080fd5b7f4e487b7100000000000000000000000000000000000000000000000000000000600052604160045260246000fd5b6115f182611384565b810181811067ffffffffffffffff821117156116105761160f6115b9565b5b80604052505050565b6000611623611296565b905061162f82826115e8565b919050565b600067ffffffffffffffff82111561164f5761164e6115b9565b5b61165882611384565b9050602081019050919050565b82818337600083830152505050565b600061168761168284611634565b611619565b9050828152602081018484840111156116a3576116a26115b4565b5b6116ae848285611665565b509392505050565b600082601f8301126116cb576116ca6115af565b5b81356116db848260208601611674565b91505092915050565b60008060008060008060c08789031215611701576117006112a0565b5b600061170f89828a016112f3565b965050602087013567ffffffffffffffff8111156117305761172f6112a5565b5b61173c89828a016116b6565b955050604061174d89828a01611496565b945050606087013567ffffffffffffffff81111561176e5761176d6112a5565b5b61177a89828a016116b6565b935050608087013567ffffffffffffffff81111561179b5761179a6112a5565b5b6117a789828a016116b6565b92505060a087013567ffffffffffffffff8111156117c8576117c76112a5565b5b6117d489828a016116b6565b9150509295509295509295565b60006020820190506117f660008301846113f3565b92915050565b7f4e487b7100000000000000000000000000000000000000000000000000000000600052602260045260246000fd5b6000600282049050600182168061184357607f821691505b602082108103611856576118556117fc565b5b50919050565b7f4f6e6c79207468652043656e7472616c20417574686f726974792063616e206d60008201527f6f6469667920636f6d70616e6965730000000000000000000000000000000000602082015250565b60006118b8602f83611340565b91506118c38261185c565b604082019050919050565b600060208201905081810360008301526118e7816118ab565b9050919050565b7f5468697320636f6d70616e792068617320616c72656164792065786973746564600082015250565b6000611924602083611340565b915061192f826118ee565b602082019050919050565b6000602082019050818103600083015261195381611917565b9050919050565b7f436f6d70616e79206861736e277420617574686f72697a656400000000000000600082015250565b6000611990601983611340565b915061199b8261195a565b602082019050919050565b600060208201905081810360008301526119bf81611983565b9050919050565b7f5468697320636f6d70616e7920646f6573206e6f742065786973740000000000600082015250565b60006119fc601b83611340565b9150611a07826119c6565b602082019050919050565b60006020820190508181036000830152611a2b816119ef565b9050919050565b7f436f6d70616e792068617320616c726561647920617574686f72697a65640000600082015250565b6000611a68601e83611340565b9150611a7382611a32565b602082019050919050565b60006020820190508181036000830152611a9781611a5b565b905091905056fea264697066735822122022c21dfa4b1abfb27ab8280e3affa1ea7681930db29afb3c8f4b8ec021c8f2a564736f6c634300080d0033",
  "immutableReferences": {},
  "source": "// SPDX-License-Identifier: GPL-3.0\r\npragma solidity >=0.7.0 <0.9.0;\r\n\r\ncontract CentralAuthority {\r\n    address centralAuthority;\r\n\r\n    struct Company{\r\n        string name;\r\n        uint phone;\r\n        string email;\r\n        string city;\r\n        string workType;\r\n        bool authorized;\r\n        bool existed;\r\n    }\r\n\r\n    // List of copmanies addresses\r\n    address [] public companiesAddresses;\r\n\r\n    // Store Companies by company address\r\n    mapping (address => Company) public companies;\r\n\r\n    constructor() {\r\n        centralAuthority = msg.sender;\r\n    }\r\n\r\n    // Allow to central authority only to execute function\r\n    modifier onlyCA(){\r\n        require(msg.sender == centralAuthority, \"Only the Central Authority can modify companies\");\r\n        _;\r\n    }\r\n\r\n    function addCompany(address _address, string memory _name, uint _phone, string memory _email, string memory _city, string memory _workType) public onlyCA{\r\n        require(!companies[_address].existed, \"This company has already existed\");\r\n\r\n        companies[_address] = Company(_name, _phone, _email, _city, _workType, true, true);\r\n        companiesAddresses.push(_address);\r\n    }\r\n\r\n    function deleteCompany(address _address) public onlyCA {\r\n        delete companies[_address];\r\n    }\r\n\r\n    function unAuthorizeCompany(address _address) public onlyCA{\r\n        require(companies[_address].authorized,\"Company hasn't authorized\");\r\n        companies[_address].authorized = false;\r\n    }\r\n\r\n    function authorizeCompany(address _address) public onlyCA{\r\n        require(companies[_address].existed, \"This company does not exist\");\r\n        require(!companies[_address].authorized,\"Company has already authorized\");\r\n        companies[_address].authorized = true;\r\n    }    \r\n\r\n    function getCompanyDetails(address _address) external view returns (string memory, uint, string memory, string memory, string memory, bool){\r\n        return (companies[_address].name,\r\n        companies[_address].phone,\r\n        companies[_address].email,\r\n        companies[_address].city,\r\n        companies[_address].workType,\r\n        companies[_address].authorized);\r\n    }  \r\n\r\n    function CheckCompanyAuth(address _address) external view returns (bool){\r\n        return companies[_address].authorized;\r\n    }\r\n\r\n    function getCompanyWorkType(address _address) external view returns (string memory){\r\n        return companies[_address].workType;\r\n    }\r\n\r\n    function getCentralAuthorityAddress() external view returns (address) {\r\n        return centralAuthority;\r\n    }\r\n}",
  "sourcePath": "D:\\Programming\\Projects\\BlockChain\\Web\\CSC\\contracts\\CentralAuthority.sol",
  "compiler": {
    "name": "solc",
    "version": "0.8.13+commit.abaa5c0e.Emscripten.clang"
  },
  "schemaVersion": "3.4.16",
  "updatedAt": "2024-04-02T05:47:34.578Z",
  "networkType": "ethereum",
  "devdoc": {
    "kind": "dev",
    "methods": {},
    "version": 1
  },
  "userdoc": {
    "kind": "user",
    "methods": {},
    "version": 1
  }
}