{
  "contractName": "CreateTender",
  "abi": [
    {
      "inputs": [
        {
          "internalType": "address",
          "name": "_CentralAuthorityContractAddress",
          "type": "address"
        }
      ],
      "stateMutability": "nonpayable",
      "type": "constructor"
    },
    {
      "inputs": [],
      "name": "tenderNum",
      "outputs": [
        {
          "internalType": "uint256",
          "name": "",
          "type": "uint256"
        }
      ],
      "stateMutability": "view",
      "type": "function",
      "constant": true
    },
    {
      "inputs": [
        {
          "internalType": "string",
          "name": "_tenderTitle",
          "type": "string"
        },
        {
          "internalType": "uint256",
          "name": "_tenderDuration",
          "type": "uint256"
        },
        {
          "internalType": "uint256",
          "name": "_tenderFee",
          "type": "uint256"
        },
        {
          "internalType": "uint256",
          "name": "_workDuration",
          "type": "uint256"
        },
        {
          "internalType": "string[]",
          "name": "_materialDetailes",
          "type": "string[]"
        },
        {
          "internalType": "uint256[]",
          "name": "_materialQuantities",
          "type": "uint256[]"
        },
        {
          "internalType": "string[]",
          "name": "_materialUnits",
          "type": "string[]"
        },
        {
          "internalType": "uint256[]",
          "name": "_materialPrices",
          "type": "uint256[]"
        }
      ],
      "name": "createBid",
      "outputs": [],
      "stateMutability": "nonpayable",
      "type": "function"
    },
    {
      "inputs": [
        {
          "internalType": "uint256",
          "name": "_tenderNum",
          "type": "uint256"
        }
      ],
      "name": "getTenderAnnouncement",
      "outputs": [
        {
          "internalType": "address",
          "name": "",
          "type": "address"
        },
        {
          "internalType": "uint256",
          "name": "",
          "type": "uint256"
        },
        {
          "internalType": "uint256",
          "name": "",
          "type": "uint256"
        },
        {
          "internalType": "uint256",
          "name": "",
          "type": "uint256"
        }
      ],
      "stateMutability": "view",
      "type": "function",
      "constant": true
    },
    {
      "inputs": [
        {
          "internalType": "uint256",
          "name": "_tenderNum",
          "type": "uint256"
        }
      ],
      "name": "getTenderDetailes",
      "outputs": [
        {
          "internalType": "string[]",
          "name": "",
          "type": "string[]"
        },
        {
          "internalType": "uint256[]",
          "name": "",
          "type": "uint256[]"
        },
        {
          "internalType": "string[]",
          "name": "",
          "type": "string[]"
        },
        {
          "internalType": "uint256[]",
          "name": "",
          "type": "uint256[]"
        }
      ],
      "stateMutability": "view",
      "type": "function",
      "constant": true
    }
  ],
  "bytecode": "0x60806040523480156200001157600080fd5b50604051620017c5380380620017c583398181016040528101906200003791906200025f565b80600360006101000a81548173ffffffffffffffffffffffffffffffffffffffff021916908373ffffffffffffffffffffffffffffffffffffffff160217905550620000886200012060201b60201c565b60008054906101000a900473ffffffffffffffffffffffffffffffffffffffff1673ffffffffffffffffffffffffffffffffffffffff163373ffffffffffffffffffffffffffffffffffffffff161462000119576040517f08c379a0000000000000000000000000000000000000000000000000000000008152600401620001109062000318565b60405180910390fd5b506200033a565b600360009054906101000a900473ffffffffffffffffffffffffffffffffffffffff1673ffffffffffffffffffffffffffffffffffffffff166379093ca16040518163ffffffff1660e01b8152600401602060405180830381865afa1580156200018e573d6000803e3d6000fd5b505050506040513d601f19601f82011682018060405250810190620001b491906200025f565b6000806101000a81548173ffffffffffffffffffffffffffffffffffffffff021916908373ffffffffffffffffffffffffffffffffffffffff160217905550565b600080fd5b600073ffffffffffffffffffffffffffffffffffffffff82169050919050565b60006200022782620001fa565b9050919050565b62000239816200021a565b81146200024557600080fd5b50565b60008151905062000259816200022e565b92915050565b600060208284031215620002785762000277620001f5565b5b6000620002888482850162000248565b91505092915050565b600082825260208201905092915050565b7f4f6e6c792063656e7472616c20617574686f726974792063616e206465706c6f60008201527f79207468697320636f6e74726163740000000000000000000000000000000000602082015250565b600062000300602f8362000291565b91506200030d82620002a2565b604082019050919050565b600060208201905081810360008301526200033381620002f1565b9050919050565b61147b806200034a6000396000f3fe608060405234801561001057600080fd5b506004361061004c5760003560e01c8063366de7d5146100515780634d6cc65a14610084578063beda2210146100b7578063cf6d0234146100d5575b600080fd5b61006b60048036038101906100669190610a39565b6100f1565b60405161007b9493929190610c7f565b60405180910390f35b61009e60048036038101906100999190610a39565b6104ed565b6040516100ae9493929190610d30565b60405180910390f35b6100bf610596565b6040516100cc9190610d75565b60405180910390f35b6100ef60048036038101906100ea919061106e565b61059c565b005b60608060608060006005600087815260200190815260200160002080549050905060008167ffffffffffffffff81111561012e5761012d610d9a565b5b60405190808252806020026020018201604052801561016157816020015b606081526020019060019003908161014c5790505b50905060008267ffffffffffffffff8111156101805761017f610d9a565b5b6040519080825280602002602001820160405280156101ae5781602001602082028036833780820191505090505b50905060008367ffffffffffffffff8111156101cd576101cc610d9a565b5b60405190808252806020026020018201604052801561020057816020015b60608152602001906001900390816101eb5790505b50905060008467ffffffffffffffff81111561021f5761021e610d9a565b5b60405190808252806020026020018201604052801561024d5781602001602082028036833780820191505090505b50905060005b858110156104d457600560008c815260200190815260200160002081815481106102805761027f6111b0565b5b9060005260206000209060040201600001805461029c9061120e565b80601f01602080910402602001604051908101604052809291908181526020018280546102c89061120e565b80156103155780601f106102ea57610100808354040283529160200191610315565b820191906000526020600020905b8154815290600101906020018083116102f857829003601f168201915b505050505085828151811061032d5761032c6111b0565b5b6020026020010181905250600560008c8152602001908152602001600020818154811061035d5761035c6111b0565b5b906000526020600020906004020160010154848281518110610382576103816111b0565b5b602002602001018181525050600560008c815260200190815260200160002081815481106103b3576103b26111b0565b5b906000526020600020906004020160020180546103cf9061120e565b80601f01602080910402602001604051908101604052809291908181526020018280546103fb9061120e565b80156104485780601f1061041d57610100808354040283529160200191610448565b820191906000526020600020905b81548152906001019060200180831161042b57829003601f168201915b50505050508382815181106104605761045f6111b0565b5b6020026020010181905250600560008c815260200190815260200160002081815481106104905761048f6111b0565b5b9060005260206000209060040201600301548282815181106104b5576104b46111b0565b5b60200260200101818152505080806104cc9061126e565b915050610253565b5083838383985098509850985050505050509193509193565b60008060008060006004600087815260200190815260200160002060000160009054906101000a900473ffffffffffffffffffffffffffffffffffffffff1690506000600460008881526020019081526020016000206002015490506000600460008981526020019081526020016000206003015490506000600460008a8152602001908152602001600020600401549050838383839750975097509750505050509193509193565b60025481565b6105a533610892565b600060149054906101000a900460ff166105f4576040517f08c379a00000000000000000000000000000000000000000000000000000000081526004016105eb90611339565b60405180910390fd5b82518451148015610606575081518451145b8015610613575080518451145b610652576040517f08c379a0000000000000000000000000000000000000000000000000000000008152600401610649906113a5565b60405180910390fd5b600260008154809291906106659061126e565b91905055506040518060c001604052803373ffffffffffffffffffffffffffffffffffffffff1681526020018981526020014281526020018881526020018781526020018681525060046000600254815260200190815260200160002060008201518160000160006101000a81548173ffffffffffffffffffffffffffffffffffffffff021916908373ffffffffffffffffffffffffffffffffffffffff160217905550602082015181600101908051906020019061072592919061094c565b5060408201518160020155606082015181600301556080820151816004015560a0820151816005015590505060005b84518110156108875760056000600254815260200190815260200160002060405180608001604052808784815181106107905761078f6111b0565b5b602002602001015181526020018684815181106107b0576107af6111b0565b5b602002602001015181526020018584815181106107d0576107cf6111b0565b5b602002602001015181526020018484815181106107f0576107ef6111b0565b5b60200260200101518152509080600181540180825580915050600190039060005260206000209060040201600090919091909150600082015181600001908051906020019061084092919061094c565b5060208201518160010155604082015181600201908051906020019061086792919061094c565b50606082015181600301555050808061087f9061126e565b915050610754565b505050505050505050565b600360009054906101000a900473ffffffffffffffffffffffffffffffffffffffff1673ffffffffffffffffffffffffffffffffffffffff1663b8574a1e826040518263ffffffff1660e01b81526004016108ed91906113c5565b6020604051808303816000875af115801561090c573d6000803e3d6000fd5b505050506040513d601f19601f820116820180604052508101906109309190611418565b600060146101000a81548160ff02191690831515021790555050565b8280546109589061120e565b90600052602060002090601f01602090048101928261097a57600085556109c1565b82601f1061099357805160ff19168380011785556109c1565b828001600101855582156109c1579182015b828111156109c05782518255916020019190600101906109a5565b5b5090506109ce91906109d2565b5090565b5b808211156109eb5760008160009055506001016109d3565b5090565b6000604051905090565b600080fd5b600080fd5b6000819050919050565b610a1681610a03565b8114610a2157600080fd5b50565b600081359050610a3381610a0d565b92915050565b600060208284031215610a4f57610a4e6109f9565b5b6000610a5d84828501610a24565b91505092915050565b600081519050919050565b600082825260208201905092915050565b6000819050602082019050919050565b600081519050919050565b600082825260208201905092915050565b60005b83811015610acc578082015181840152602081019050610ab1565b83811115610adb576000848401525b50505050565b6000601f19601f8301169050919050565b6000610afd82610a92565b610b078185610a9d565b9350610b17818560208601610aae565b610b2081610ae1565b840191505092915050565b6000610b378383610af2565b905092915050565b6000602082019050919050565b6000610b5782610a66565b610b618185610a71565b935083602082028501610b7385610a82565b8060005b85811015610baf5784840389528151610b908582610b2b565b9450610b9b83610b3f565b925060208a01995050600181019050610b77565b50829750879550505050505092915050565b600081519050919050565b600082825260208201905092915050565b6000819050602082019050919050565b610bf681610a03565b82525050565b6000610c088383610bed565b60208301905092915050565b6000602082019050919050565b6000610c2c82610bc1565b610c368185610bcc565b9350610c4183610bdd565b8060005b83811015610c72578151610c598882610bfc565b9750610c6483610c14565b925050600181019050610c45565b5085935050505092915050565b60006080820190508181036000830152610c998187610b4c565b90508181036020830152610cad8186610c21565b90508181036040830152610cc18185610b4c565b90508181036060830152610cd58184610c21565b905095945050505050565b600073ffffffffffffffffffffffffffffffffffffffff82169050919050565b6000610d0b82610ce0565b9050919050565b610d1b81610d00565b82525050565b610d2a81610a03565b82525050565b6000608082019050610d456000830187610d12565b610d526020830186610d21565b610d5f6040830185610d21565b610d6c6060830184610d21565b95945050505050565b6000602082019050610d8a6000830184610d21565b92915050565b600080fd5b600080fd5b7f4e487b7100000000000000000000000000000000000000000000000000000000600052604160045260246000fd5b610dd282610ae1565b810181811067ffffffffffffffff82111715610df157610df0610d9a565b5b80604052505050565b6000610e046109ef565b9050610e108282610dc9565b919050565b600067ffffffffffffffff821115610e3057610e2f610d9a565b5b610e3982610ae1565b9050602081019050919050565b82818337600083830152505050565b6000610e68610e6384610e15565b610dfa565b905082815260208101848484011115610e8457610e83610d95565b5b610e8f848285610e46565b509392505050565b600082601f830112610eac57610eab610d90565b5b8135610ebc848260208601610e55565b91505092915050565b600067ffffffffffffffff821115610ee057610edf610d9a565b5b602082029050602081019050919050565b600080fd5b6000610f09610f0484610ec5565b610dfa565b90508083825260208201905060208402830185811115610f2c57610f2b610ef1565b5b835b81811015610f7357803567ffffffffffffffff811115610f5157610f50610d90565b5b808601610f5e8982610e97565b85526020850194505050602081019050610f2e565b5050509392505050565b600082601f830112610f9257610f91610d90565b5b8135610fa2848260208601610ef6565b91505092915050565b600067ffffffffffffffff821115610fc657610fc5610d9a565b5b602082029050602081019050919050565b6000610fea610fe584610fab565b610dfa565b9050808382526020820190506020840283018581111561100d5761100c610ef1565b5b835b8181101561103657806110228882610a24565b84526020840193505060208101905061100f565b5050509392505050565b600082601f83011261105557611054610d90565b5b8135611065848260208601610fd7565b91505092915050565b600080600080600080600080610100898b03121561108f5761108e6109f9565b5b600089013567ffffffffffffffff8111156110ad576110ac6109fe565b5b6110b98b828c01610e97565b98505060206110ca8b828c01610a24565b97505060406110db8b828c01610a24565b96505060606110ec8b828c01610a24565b955050608089013567ffffffffffffffff81111561110d5761110c6109fe565b5b6111198b828c01610f7d565b94505060a089013567ffffffffffffffff81111561113a576111396109fe565b5b6111468b828c01611040565b93505060c089013567ffffffffffffffff811115611167576111666109fe565b5b6111738b828c01610f7d565b92505060e089013567ffffffffffffffff811115611194576111936109fe565b5b6111a08b828c01611040565b9150509295985092959890939650565b7f4e487b7100000000000000000000000000000000000000000000000000000000600052603260045260246000fd5b7f4e487b7100000000000000000000000000000000000000000000000000000000600052602260045260246000fd5b6000600282049050600182168061122657607f821691505b602082108103611239576112386111df565b5b50919050565b7f4e487b7100000000000000000000000000000000000000000000000000000000600052601160045260246000fd5b600061127982610a03565b91507fffffffffffffffffffffffffffffffffffffffffffffffffffffffffffffffff82036112ab576112aa61123f565b5b600182019050919050565b600082825260208201905092915050565b7f596f7520617265206e6f7420617574686f72697a65642c20596f752063616e2760008201527f74206372656174652074656e6465720000000000000000000000000000000000602082015250565b6000611323602f836112b6565b915061132e826112c7565b604082019050919050565b6000602082019050818103600083015261135281611316565b9050919050565b7f496e76616c696420696e70757420646174610000000000000000000000000000600082015250565b600061138f6012836112b6565b915061139a82611359565b602082019050919050565b600060208201905081810360008301526113be81611382565b9050919050565b60006020820190506113da6000830184610d12565b92915050565b60008115159050919050565b6113f5816113e0565b811461140057600080fd5b50565b600081519050611412816113ec565b92915050565b60006020828403121561142e5761142d6109f9565b5b600061143c84828501611403565b9150509291505056fea26469706673582212201075a2e3da8f9f8591c8f35b8a614b30e670416d86d0a73b0348c6f03a426e9a64736f6c634300080d0033",
  "immutableReferences": {},
  "source": "// SPDX-License-Identifier: GPL-3.0\r\npragma solidity >=0.7.0 <0.9.0;\r\n\r\ninterface CentralAuthorityContractData {\r\n    function getCentralAuthorityAddress() external view returns (address);\r\n    function CheckCompanyAuth(address _address) external returns (bool);\r\n    function getCompanyWorkType(address _address) external view returns (string memory);\r\n}\r\n\r\ncontract CreateTender {\r\n    // Variables to store necessary data from central authority contract\r\n    address centralAuthority;\r\n    bool authorized;\r\n    string workType;\r\n\r\n    // Variables to store create bid contract data\r\n    uint public tenderNum;\r\n\r\n    // Variables to store Central Authority Contract Address\r\n    address CentralAuthorityContractAddress;\r\n\r\n    // Tender announcement detailes\r\n    struct TenderAnnouncement{\r\n        address tenderOwner;\r\n        string tenderTitle;\r\n        uint tenderPublishTime;\r\n        uint tenderDuration;\r\n        uint tenderFee;\r\n        uint workDuration;\r\n    }\r\n\r\n    // Tender requirements detailes\r\n    struct RequiredTenderDetailes {\r\n        string materialDetailes;\r\n        uint materialQuantities;\r\n        string materialUnits;\r\n        uint materialPrices;\r\n    }\r\n\r\n    // Store Tender detailes by Tender number\r\n    mapping (uint => TenderAnnouncement) tenderAnnouncement;\r\n    mapping (uint => RequiredTenderDetailes[]) requiredTenderDetailes;\r\n\r\n    constructor(address _CentralAuthorityContractAddress) {\r\n        CentralAuthorityContractAddress = _CentralAuthorityContractAddress;\r\n        getCentralAuthority();\r\n        require(msg.sender == centralAuthority, \"Only central authority can deploy this contract\");\r\n    }\r\n\r\n    // Functios to get necessary data from central authority contract\r\n    function getCentralAuthority() internal {\r\n        centralAuthority = CentralAuthorityContractData(CentralAuthorityContractAddress).getCentralAuthorityAddress();\r\n    }\r\n\r\n    function CheckCompany(address _address) internal {\r\n        authorized = CentralAuthorityContractData(CentralAuthorityContractAddress).CheckCompanyAuth(_address);\r\n    }\r\n\r\n    function getWorkType(address _address) internal {\r\n        workType = CentralAuthorityContractData(CentralAuthorityContractAddress).getCompanyWorkType(_address);\r\n    }\r\n\r\n    // Create Tender Function\r\n    function createBid(string memory _tenderTitle,uint _tenderDuration, uint _tenderFee, uint _workDuration, string[] memory _materialDetailes, uint[] memory _materialQuantities, string[] memory _materialUnits, uint[] memory _materialPrices) public {\r\n        CheckCompany(msg.sender);\r\n\r\n        require(authorized, \"You are not authorized, You can't create tender\");\r\n        require(_materialDetailes.length == _materialQuantities.length && _materialDetailes.length == _materialUnits.length && _materialDetailes.length == _materialPrices.length, \"Invalid input data\");\r\n\r\n        tenderNum ++;\r\n\r\n        // Store Tender announcement detailes\r\n        tenderAnnouncement[tenderNum] = TenderAnnouncement(msg.sender, _tenderTitle, block.timestamp, _tenderDuration, _tenderFee, _workDuration);\r\n\r\n        // Add bid requirements detailes\r\n        for (uint i = 0; i < _materialDetailes.length; i++) \r\n        {\r\n            requiredTenderDetailes[tenderNum].push(RequiredTenderDetailes({\r\n                materialDetailes: _materialDetailes[i],\r\n                materialQuantities: _materialQuantities[i],\r\n                materialUnits: _materialUnits[i],\r\n                materialPrices: _materialPrices[i]\r\n            }));\r\n        }\r\n    }\r\n\r\n    // Get tender tnnouncement data to use in tender contract\r\n    function getTenderAnnouncement(uint _tenderNum) external view returns (address, uint, uint, uint){\r\n        address owner = tenderAnnouncement[_tenderNum].tenderOwner;\r\n        uint publishTime = tenderAnnouncement[_tenderNum].tenderPublishTime;\r\n        uint duration = tenderAnnouncement[_tenderNum].tenderDuration;\r\n        uint fee = tenderAnnouncement[_tenderNum].tenderFee;\r\n\r\n        return (owner, publishTime, duration, fee);\r\n    }\r\n\r\n    // Get Tender materials detailes\r\n    function getTenderDetailes(uint _tenderNum) external view returns (string[] memory, uint[] memory, string[] memory, uint[] memory){\r\n\r\n        uint dataCount = requiredTenderDetailes[_tenderNum].length;\r\n        \r\n        string [] memory materialsDetaile = new string[](dataCount);\r\n        uint[] memory materialsQuantity = new uint[](dataCount);\r\n        string[] memory materialsUnit = new string[](dataCount);\r\n        uint[] memory materialsPrice = new uint[](dataCount);\r\n\r\n        for (uint i = 0; i < dataCount; i++) \r\n        {\r\n            materialsDetaile[i] = requiredTenderDetailes[_tenderNum][i].materialDetailes;\r\n            materialsQuantity[i] = requiredTenderDetailes[_tenderNum][i].materialQuantities;\r\n            materialsUnit[i] = requiredTenderDetailes[_tenderNum][i].materialUnits;\r\n            materialsPrice[i] = requiredTenderDetailes[_tenderNum][i].materialPrices;\r\n        }\r\n        return (materialsDetaile, materialsQuantity, materialsUnit, materialsPrice);\r\n    }\r\n}",
  "sourcePath": "D:\\Programming\\Projects\\BlockChain\\Web\\CSC\\contracts\\CreateTender.sol",
  "compiler": {
    "name": "solc",
    "version": "0.8.13+commit.abaa5c0e.Emscripten.clang"
  },
  "schemaVersion": "3.4.16",
  "updatedAt": "2024-04-02T05:47:34.590Z",
  "networkType": "ethereum",
  "devdoc": {
    "kind": "dev",
    "methods": {},
    "version": 1
  },
  "userdoc": {
    "kind": "user",
    "methods": {},
    "version": 1
  }
}