{
  "contractName": "Materials",
  "abi": [
    {
      "inputs": [
        {
          "internalType": "address",
          "name": "_CentralAuthorityAddress",
          "type": "address"
        },
        {
          "internalType": "address",
          "name": "_CreateBidAddress",
          "type": "address"
        },
        {
          "internalType": "address",
          "name": "_BiddingAddress",
          "type": "address"
        }
      ],
      "stateMutability": "nonpayable",
      "type": "constructor"
    },
    {
      "inputs": [],
      "name": "materialInvoiceNum",
      "outputs": [
        {
          "internalType": "uint256",
          "name": "",
          "type": "uint256"
        }
      ],
      "stateMutability": "view",
      "type": "function",
      "constant": true
    },
    {
      "inputs": [
        {
          "internalType": "string",
          "name": "_name",
          "type": "string"
        },
        {
          "internalType": "string",
          "name": "_detailes",
          "type": "string"
        },
        {
          "internalType": "uint256",
          "name": "_quantity",
          "type": "uint256"
        },
        {
          "internalType": "string",
          "name": "_materialUnit",
          "type": "string"
        },
        {
          "internalType": "uint256",
          "name": "_price",
          "type": "uint256"
        },
        {
          "internalType": "string",
          "name": "_priceUnit",
          "type": "string"
        }
      ],
      "name": "addMaterial",
      "outputs": [],
      "stateMutability": "nonpayable",
      "type": "function"
    },
    {
      "inputs": [
        {
          "internalType": "string",
          "name": "_detailes",
          "type": "string"
        },
        {
          "internalType": "uint256",
          "name": "_quantity",
          "type": "uint256"
        },
        {
          "internalType": "uint256",
          "name": "_price",
          "type": "uint256"
        },
        {
          "internalType": "address",
          "name": "_sendTo",
          "type": "address"
        }
      ],
      "name": "sendMaterial",
      "outputs": [],
      "stateMutability": "nonpayable",
      "type": "function"
    },
    {
      "inputs": [
        {
          "internalType": "uint256",
          "name": "_materialInvoiceNum",
          "type": "uint256"
        },
        {
          "internalType": "string",
          "name": "_detailes",
          "type": "string"
        },
        {
          "internalType": "uint256",
          "name": "_quantity",
          "type": "uint256"
        },
        {
          "internalType": "address",
          "name": "_sendFrom",
          "type": "address"
        },
        {
          "internalType": "uint256",
          "name": "_newPrice",
          "type": "uint256"
        }
      ],
      "name": "receiveMaterial",
      "outputs": [],
      "stateMutability": "payable",
      "type": "function",
      "payable": true
    },
    {
      "inputs": [
        {
          "internalType": "uint256",
          "name": "_bidNum",
          "type": "uint256"
        },
        {
          "internalType": "uint256",
          "name": "_materialInvoiceNum",
          "type": "uint256"
        },
        {
          "internalType": "string",
          "name": "_detailes",
          "type": "string"
        },
        {
          "internalType": "uint256",
          "name": "_quantity",
          "type": "uint256"
        },
        {
          "internalType": "address",
          "name": "_sendFrom",
          "type": "address"
        },
        {
          "internalType": "uint256",
          "name": "_newPrice",
          "type": "uint256"
        }
      ],
      "name": "receiveBidMaterial",
      "outputs": [],
      "stateMutability": "payable",
      "type": "function",
      "payable": true
    }
  ],
  "bytecode": "0x6080604052600080553480156200001557600080fd5b5060405162003d8538038062003d8583398181016040528101906200003b919062000171565b82600560006101000a81548173ffffffffffffffffffffffffffffffffffffffff021916908373ffffffffffffffffffffffffffffffffffffffff16021790555081600660006101000a81548173ffffffffffffffffffffffffffffffffffffffff021916908373ffffffffffffffffffffffffffffffffffffffff16021790555080600760006101000a81548173ffffffffffffffffffffffffffffffffffffffff021916908373ffffffffffffffffffffffffffffffffffffffff160217905550505050620001cd565b600080fd5b600073ffffffffffffffffffffffffffffffffffffffff82169050919050565b600062000139826200010c565b9050919050565b6200014b816200012c565b81146200015757600080fd5b50565b6000815190506200016b8162000140565b92915050565b6000806000606084860312156200018d576200018c62000107565b5b60006200019d868287016200015a565b9350506020620001b0868287016200015a565b9250506040620001c3868287016200015a565b9150509250925092565b613ba880620001dd6000396000f3fe60806040526004361061004a5760003560e01c80631bcd9d901461004f57806332316c9b1461007a57806375e09b05146100a3578063e0f0c978146100cc578063e22e0d21146100e8575b600080fd5b34801561005b57600080fd5b50610064610104565b6040516100719190612af7565b60405180910390f35b34801561008657600080fd5b506100a1600480360381019061009c9190612c98565b61010a565b005b3480156100af57600080fd5b506100ca60048036038101906100c59190612df3565b6106ef565b005b6100e660048036038101906100e19190612e76565b610a6e565b005b61010260048036038101906100fd9190612f0d565b6117b9565b005b60005481565b600080600360003373ffffffffffffffffffffffffffffffffffffffff1673ffffffffffffffffffffffffffffffffffffffff168152602001908152602001600020905060008180549050036102e157600360003373ffffffffffffffffffffffffffffffffffffffff1673ffffffffffffffffffffffffffffffffffffffff1681526020019081526020016000206040518060e001604052803373ffffffffffffffffffffffffffffffffffffffff1681526020018a815260200189815260200188815260200187815260200186815260200185815250908060018154018082558091505060019003906000526020600020906007020160009091909190915060008201518160000160006101000a81548173ffffffffffffffffffffffffffffffffffffffff021916908373ffffffffffffffffffffffffffffffffffffffff160217905550602082015181600101908051906020019061026e92919061292a565b50604082015181600201908051906020019061028b92919061292a565b506060820151816003015560808201518160040190805190602001906102b292919061292a565b5060a0820151816005015560c08201518160060190805190602001906102d992919061292a565b5050506106e5565b60005b818054905081101561055b57886040516020016103019190613030565b6040516020818303038152906040528051906020012082828154811061032a57610329613047565b5b906000526020600020906007020160010160405160200161034b919061316a565b604051602081830303815290604052805190602001201480156103dc57508760405160200161037a9190613030565b604051602081830303815290604052805190602001208282815481106103a3576103a2613047565b5b90600052602060002090600702016002016040516020016103c4919061316a565b60405160208183030381529060405280519060200120145b80156104565750856040516020016103f49190613030565b6040516020818303038152906040528051906020012082828154811061041d5761041c613047565b5b906000526020600020906007020160040160405160200161043e919061316a565b60405160208183030381529060405280519060200120145b801561048557508482828154811061047157610470613047565b5b906000526020600020906007020160050154145b80156104ff57508360405160200161049d9190613030565b604051602081830303815290604052805190602001208282815481106104c6576104c5613047565b5b90600052602060002090600702016006016040516020016104e7919061316a565b60405160208183030381529060405280519060200120145b15610548578682828154811061051857610517613047565b5b9060005260206000209060070201600301600082825461053891906131b0565b925050819055506001925061055b565b808061055390613206565b9150506102e4565b50816106e457600360003373ffffffffffffffffffffffffffffffffffffffff1673ffffffffffffffffffffffffffffffffffffffff1681526020019081526020016000206040518060e001604052803373ffffffffffffffffffffffffffffffffffffffff1681526020018a815260200189815260200188815260200187815260200186815260200185815250908060018154018082558091505060019003906000526020600020906007020160009091909190915060008201518160000160006101000a81548173ffffffffffffffffffffffffffffffffffffffff021916908373ffffffffffffffffffffffffffffffffffffffff160217905550602082015181600101908051906020019061067592919061292a565b50604082015181600201908051906020019061069292919061292a565b506060820151816003015560808201518160040190805190602001906106b992919061292a565b5060a0820151816005015560c08201518160060190805190602001906106e092919061292a565b5050505b5b5050505050505050565b8073ffffffffffffffffffffffffffffffffffffffff163373ffffffffffffffffffffffffffffffffffffffff160361075d576040517f08c379a0000000000000000000000000000000000000000000000000000000008152600401610754906132d1565b60405180910390fd5b6000600360003373ffffffffffffffffffffffffffffffffffffffff1673ffffffffffffffffffffffffffffffffffffffff1681526020019081526020016000209050600080600090505b8280549050811015610a2557866040516020016107c59190613030565b604051602081830303815290604052805190602001208382815481106107ee576107ed613047565b5b906000526020600020906007020160020160405160200161080f919061316a565b6040516020818303038152906040528051906020012014801561085657508281815481106108405761083f613047565b5b9060005260206000209060070201600301548611155b801561088557508483828154811061087157610870613047565b5b906000526020600020906007020160050154145b15610a125760008081548092919061089c90613206565b919050555033600460008054815260200190815260200160002060000160006101000a81548173ffffffffffffffffffffffffffffffffffffffff021916908373ffffffffffffffffffffffffffffffffffffffff16021790555083600460008054815260200190815260200160002060010160006101000a81548173ffffffffffffffffffffffffffffffffffffffff021916908373ffffffffffffffffffffffffffffffffffffffff160217905550866004600080548152602001908152602001600020600201908051906020019061097892919061292a565b508560046000805481526020019081526020016000206003018190555084600460008054815260200190815260200160002060040181905550858382815481106109c5576109c4613047565b5b9060005260206000209060070201600301546109e191906132f1565b8382815481106109f4576109f3613047565b5b90600052602060002090600702016003018190555060019150610a25565b8080610a1d90613206565b9150506107a8565b5080610a66576040517f08c379a0000000000000000000000000000000000000000000000000000000008152600401610a5d906133bd565b60405180910390fd5b505050505050565b6004600086815260200190815260200160002060010160009054906101000a900473ffffffffffffffffffffffffffffffffffffffff1673ffffffffffffffffffffffffffffffffffffffff163373ffffffffffffffffffffffffffffffffffffffff1614610b12576040517f08c379a0000000000000000000000000000000000000000000000000000000008152600401610b099061344f565b60405180910390fd5b6004600086815260200190815260200160002060000160009054906101000a900473ffffffffffffffffffffffffffffffffffffffff1673ffffffffffffffffffffffffffffffffffffffff168273ffffffffffffffffffffffffffffffffffffffff1614610bb6576040517f08c379a0000000000000000000000000000000000000000000000000000000008152600401610bad90613507565b60405180910390fd5b60046000868152602001908152602001600020600301548314610c0e576040517f08c379a0000000000000000000000000000000000000000000000000000000008152600401610c0590613599565b60405180910390fd5b6004600086815260200190815260200160002060040154811015610c67576040517f08c379a0000000000000000000000000000000000000000000000000000000008152600401610c5e9061362b565b60405180910390fd5b6000600360008473ffffffffffffffffffffffffffffffffffffffff1673ffffffffffffffffffffffffffffffffffffffff168152602001908152602001600020905060005b81805490508110156117b05785604051602001610cca9190613030565b60405160208183030381529060405280519060200120828281548110610cf357610cf2613047565b5b9060005260206000209060070201600201604051602001610d14919061316a565b6040516020818303038152906040528051906020012003611744576000600460008054815260200190815260200160002060040154600460008054815260200190815260200160002060030154610d6b919061364b565b905080341015610db0576040517f08c379a0000000000000000000000000000000000000000000000000000000008152600401610da790613717565b60405180910390fd5b6000600360003373ffffffffffffffffffffffffffffffffffffffff1673ffffffffffffffffffffffffffffffffffffffff168152602001908152602001600020905060008180549050036111ce57600360003373ffffffffffffffffffffffffffffffffffffffff1673ffffffffffffffffffffffffffffffffffffffff1681526020019081526020016000206040518060e00160405280868681548110610e5c57610e5b613047565b5b906000526020600020906007020160000160009054906101000a900473ffffffffffffffffffffffffffffffffffffffff1673ffffffffffffffffffffffffffffffffffffffff168152602001868681548110610ebc57610ebb613047565b5b90600052602060002090600702016001018054610ed8906130a5565b80601f0160208091040260200160405190810160405280929190818152602001828054610f04906130a5565b8015610f515780601f10610f2657610100808354040283529160200191610f51565b820191906000526020600020905b815481529060010190602001808311610f3457829003601f168201915b505050505081526020018a8152602001898152602001868681548110610f7a57610f79613047565b5b90600052602060002090600702016004018054610f96906130a5565b80601f0160208091040260200160405190810160405280929190818152602001828054610fc2906130a5565b801561100f5780601f10610fe45761010080835404028352916020019161100f565b820191906000526020600020905b815481529060010190602001808311610ff257829003601f168201915b5050505050815260200187815260200186868154811061103257611031613047565b5b9060005260206000209060070201600601805461104e906130a5565b80601f016020809104026020016040519081016040528092919081815260200182805461107a906130a5565b80156110c75780601f1061109c576101008083540402835291602001916110c7565b820191906000526020600020905b8154815290600101906020018083116110aa57829003601f168201915b5050505050815250908060018154018082558091505060019003906000526020600020906007020160009091909190915060008201518160000160006101000a81548173ffffffffffffffffffffffffffffffffffffffff021916908373ffffffffffffffffffffffffffffffffffffffff160217905550602082015181600101908051906020019061115b92919061292a565b50604082015181600201908051906020019061117892919061292a565b5060608201518160030155608082015181600401908051906020019061119f92919061292a565b5060a0820151816005015560c08201518160060190805190602001906111c692919061292a565b5050506116c0565b60005b81805490508110156116be57886040516020016111ee9190613030565b6040516020818303038152906040528051906020012082828154811061121757611216613047565b5b9060005260206000209060070201600201604051602001611238919061316a565b6040516020818303038152906040528051906020012014801561127e57508582828154811061126a57611269613047565b5b906000526020600020906007020160050154145b156112e0578782828154811061129757611296613047565b5b9060005260206000209060070201600301546112b391906131b0565b8282815481106112c6576112c5613047565b5b9060005260206000209060070201600301819055506116ab565b600360003373ffffffffffffffffffffffffffffffffffffffff1673ffffffffffffffffffffffffffffffffffffffff1681526020019081526020016000206040518060e0016040528087878154811061133d5761133c613047565b5b906000526020600020906007020160000160009054906101000a900473ffffffffffffffffffffffffffffffffffffffff1673ffffffffffffffffffffffffffffffffffffffff16815260200187878154811061139d5761139c613047565b5b906000526020600020906007020160010180546113b9906130a5565b80601f01602080910402602001604051908101604052809291908181526020018280546113e5906130a5565b80156114325780601f1061140757610100808354040283529160200191611432565b820191906000526020600020905b81548152906001019060200180831161141557829003601f168201915b505050505081526020018b81526020018a815260200187878154811061145b5761145a613047565b5b90600052602060002090600702016004018054611477906130a5565b80601f01602080910402602001604051908101604052809291908181526020018280546114a3906130a5565b80156114f05780601f106114c5576101008083540402835291602001916114f0565b820191906000526020600020905b8154815290600101906020018083116114d357829003601f168201915b5050505050815260200188815260200187878154811061151357611512613047565b5b9060005260206000209060070201600601805461152f906130a5565b80601f016020809104026020016040519081016040528092919081815260200182805461155b906130a5565b80156115a85780601f1061157d576101008083540402835291602001916115a8565b820191906000526020600020905b81548152906001019060200180831161158b57829003601f168201915b5050505050815250908060018154018082558091505060019003906000526020600020906007020160009091909190915060008201518160000160006101000a81548173ffffffffffffffffffffffffffffffffffffffff021916908373ffffffffffffffffffffffffffffffffffffffff160217905550602082015181600101908051906020019061163c92919061292a565b50604082015181600201908051906020019061165992919061292a565b5060608201518160030155608082015181600401908051906020019061168092919061292a565b5060a0820151816005015560c08201518160060190805190602001906116a792919061292a565b5050505b80806116b690613206565b9150506111d1565b505b600460008a815260200190815260200160002060000160009054906101000a900473ffffffffffffffffffffffffffffffffffffffff1673ffffffffffffffffffffffffffffffffffffffff166108fc839081150290604051600060405180830381858888f1935050505015801561173c573d6000803e3d6000fd5b50505061179d565b8482828154811061175857611757613047565b5b90600052602060002090600702016003015461177491906131b0565b82828154811061178757611786613047565b5b9060005260206000209060070201600301819055505b80806117a890613206565b915050610cad565b50505050505050565b6117c286612703565b6009600087815260200190815260200160002060009054906101000a900473ffffffffffffffffffffffffffffffffffffffff1673ffffffffffffffffffffffffffffffffffffffff168273ffffffffffffffffffffffffffffffffffffffff1614611863576040517f08c379a000000000000000000000000000000000000000000000000000000000815260040161185a906137a9565b60405180910390fd5b600a600087815260200190815260200160002060000160009054906101000a900473ffffffffffffffffffffffffffffffffffffffff1673ffffffffffffffffffffffffffffffffffffffff163373ffffffffffffffffffffffffffffffffffffffff1614611907576040517f08c379a00000000000000000000000000000000000000000000000000000000081526004016118fe9061383b565b60405180910390fd5b6004600086815260200190815260200160002060010160009054906101000a900473ffffffffffffffffffffffffffffffffffffffff1673ffffffffffffffffffffffffffffffffffffffff163373ffffffffffffffffffffffffffffffffffffffff16146119ab576040517f08c379a00000000000000000000000000000000000000000000000000000000081526004016119a29061344f565b60405180910390fd5b6004600086815260200190815260200160002060000160009054906101000a900473ffffffffffffffffffffffffffffffffffffffff1673ffffffffffffffffffffffffffffffffffffffff168273ffffffffffffffffffffffffffffffffffffffff1614611a4f576040517f08c379a0000000000000000000000000000000000000000000000000000000008152600401611a4690613507565b60405180910390fd5b60046000868152602001908152602001600020600301548314611aa7576040517f08c379a0000000000000000000000000000000000000000000000000000000008152600401611a9e90613599565b60405180910390fd5b611ab0866127f3565b6000600860008881526020019081526020016000206000018054905090506000600360008573ffffffffffffffffffffffffffffffffffffffff1673ffffffffffffffffffffffffffffffffffffffff168152602001908152602001600020905060005b81805490508110156126f85786604051602001611b319190613030565b60405160208183030381529060405280519060200120828281548110611b5a57611b59613047565b5b9060005260206000209060070201600201604051602001611b7b919061316a565b604051602081830303815290604052805190602001200361268c5760005b8381101561268657600860008b81526020019081526020016000206000018181548110611bc957611bc8613047565b5b90600052602060002001604051602001611be3919061316a565b60405160208183030381529060405280519060200120838381548110611c0c57611c0b613047565b5b9060005260206000209060070201600201604051602001611c2d919061316a565b6040516020818303038152906040528051906020012003612673576000600860008c81526020019081526020016000206002018281548110611c7257611c71613047565b5b9060005260206000200154600460008c815260200190815260200160002060030154611c9e919061364b565b905080341015611ce3576040517f08c379a0000000000000000000000000000000000000000000000000000000008152600401611cda90613717565b60405180910390fd5b6000600360003373ffffffffffffffffffffffffffffffffffffffff1673ffffffffffffffffffffffffffffffffffffffff1681526020019081526020016000209050600081805490500361210157600360003373ffffffffffffffffffffffffffffffffffffffff1673ffffffffffffffffffffffffffffffffffffffff1681526020019081526020016000206040518060e00160405280878781548110611d8f57611d8e613047565b5b906000526020600020906007020160000160009054906101000a900473ffffffffffffffffffffffffffffffffffffffff1673ffffffffffffffffffffffffffffffffffffffff168152602001878781548110611def57611dee613047565b5b90600052602060002090600702016001018054611e0b906130a5565b80601f0160208091040260200160405190810160405280929190818152602001828054611e37906130a5565b8015611e845780601f10611e5957610100808354040283529160200191611e84565b820191906000526020600020905b815481529060010190602001808311611e6757829003601f168201915b505050505081526020018c81526020018b8152602001878781548110611ead57611eac613047565b5b90600052602060002090600702016004018054611ec9906130a5565b80601f0160208091040260200160405190810160405280929190818152602001828054611ef5906130a5565b8015611f425780601f10611f1757610100808354040283529160200191611f42565b820191906000526020600020905b815481529060010190602001808311611f2557829003601f168201915b50505050508152602001898152602001878781548110611f6557611f64613047565b5b90600052602060002090600702016006018054611f81906130a5565b80601f0160208091040260200160405190810160405280929190818152602001828054611fad906130a5565b8015611ffa5780601f10611fcf57610100808354040283529160200191611ffa565b820191906000526020600020905b815481529060010190602001808311611fdd57829003601f168201915b5050505050815250908060018154018082558091505060019003906000526020600020906007020160009091909190915060008201518160000160006101000a81548173ffffffffffffffffffffffffffffffffffffffff021916908373ffffffffffffffffffffffffffffffffffffffff160217905550602082015181600101908051906020019061208e92919061292a565b5060408201518160020190805190602001906120ab92919061292a565b506060820151816003015560808201518160040190805190602001906120d292919061292a565b5060a0820151816005015560c08201518160060190805190602001906120f992919061292a565b5050506125f3565b60005b81805490508110156125f1578a6040516020016121219190613030565b6040516020818303038152906040528051906020012082828154811061214a57612149613047565b5b906000526020600020906007020160020160405160200161216b919061316a565b604051602081830303815290604052805190602001201480156121b157508782828154811061219d5761219c613047565b5b906000526020600020906007020160050154145b1561221357898282815481106121ca576121c9613047565b5b9060005260206000209060070201600301546121e691906131b0565b8282815481106121f9576121f8613047565b5b9060005260206000209060070201600301819055506125de565b600360003373ffffffffffffffffffffffffffffffffffffffff1673ffffffffffffffffffffffffffffffffffffffff1681526020019081526020016000206040518060e001604052808888815481106122705761226f613047565b5b906000526020600020906007020160000160009054906101000a900473ffffffffffffffffffffffffffffffffffffffff1673ffffffffffffffffffffffffffffffffffffffff1681526020018888815481106122d0576122cf613047565b5b906000526020600020906007020160010180546122ec906130a5565b80601f0160208091040260200160405190810160405280929190818152602001828054612318906130a5565b80156123655780601f1061233a57610100808354040283529160200191612365565b820191906000526020600020905b81548152906001019060200180831161234857829003601f168201915b505050505081526020018d81526020018c815260200188888154811061238e5761238d613047565b5b906000526020600020906007020160040180546123aa906130a5565b80601f01602080910402602001604051908101604052809291908181526020018280546123d6906130a5565b80156124235780601f106123f857610100808354040283529160200191612423565b820191906000526020600020905b81548152906001019060200180831161240657829003601f168201915b505050505081526020018a815260200188888154811061244657612445613047565b5b90600052602060002090600702016006018054612462906130a5565b80601f016020809104026020016040519081016040528092919081815260200182805461248e906130a5565b80156124db5780601f106124b0576101008083540402835291602001916124db565b820191906000526020600020905b8154815290600101906020018083116124be57829003601f168201915b5050505050815250908060018154018082558091505060019003906000526020600020906007020160009091909190915060008201518160000160006101000a81548173ffffffffffffffffffffffffffffffffffffffff021916908373ffffffffffffffffffffffffffffffffffffffff160217905550602082015181600101908051906020019061256f92919061292a565b50604082015181600201908051906020019061258c92919061292a565b506060820151816003015560808201518160040190805190602001906125b392919061292a565b5060a0820151816005015560c08201518160060190805190602001906125da92919061292a565b5050505b80806125e990613206565b915050612104565b505b600460008c815260200190815260200160002060000160009054906101000a900473ffffffffffffffffffffffffffffffffffffffff1673ffffffffffffffffffffffffffffffffffffffff166108fc839081150290604051600060405180830381858888f1935050505015801561266f573d6000803e3d6000fd5b5050505b808061267e90613206565b915050611b99565b506126e5565b858282815481106126a05761269f613047565b5b9060005260206000209060070201600301546126bc91906131b0565b8282815481106126cf576126ce613047565b5b9060005260206000209060070201600301819055505b80806126f090613206565b915050611b14565b505050505050505050565b600760009054906101000a900473ffffffffffffffffffffffffffffffffffffffff1673ffffffffffffffffffffffffffffffffffffffff16634129b2c9826040518263ffffffff1660e01b815260040161275e9190612af7565b602060405180830381865afa15801561277b573d6000803e3d6000fd5b505050506040513d601f19601f8201168201806040525081019061279f9190613870565b6009600083815260200190815260200160002060006101000a81548173ffffffffffffffffffffffffffffffffffffffff021916908373ffffffffffffffffffffffffffffffffffffffff16021790555050565b600760009054906101000a900473ffffffffffffffffffffffffffffffffffffffff1673ffffffffffffffffffffffffffffffffffffffff1663e7a4c67b826040518263ffffffff1660e01b815260040161284e9190612af7565b600060405180830381865afa15801561286b573d6000803e3d6000fd5b505050506040513d6000823e3d601f19601f820116820180604052508101906128949190613acb565b6008600085815260200190815260200160002060000160006008600087815260200190815260200160002060010160006008600089815260200190815260200160002060020160008691905090805190602001906128f39291906129b0565b5085919050908051906020019061290b9291906129b0565b508491905090805190602001906129239291906129fd565b5050505050565b828054612936906130a5565b90600052602060002090601f016020900481019282612958576000855561299f565b82601f1061297157805160ff191683800117855561299f565b8280016001018555821561299f579182015b8281111561299e578251825591602001919060010190612983565b5b5090506129ac9190612a5d565b5090565b8280548282559060005260206000209081019282156129ec579160200282015b828111156129eb5782518255916020019190600101906129d0565b5b5090506129f99190612a5d565b5090565b828054828255906000526020600020908101928215612a4c579160200282015b82811115612a4b578251829080519060200190612a3b92919061292a565b5091602001919060010190612a1d565b5b509050612a599190612a7a565b5090565b5b80821115612a76576000816000905550600101612a5e565b5090565b5b80821115612a9a5760008181612a919190612a9e565b50600101612a7b565b5090565b508054612aaa906130a5565b6000825580601f10612abc5750612adb565b601f016020900490600052602060002090810190612ada9190612a5d565b5b50565b6000819050919050565b612af181612ade565b82525050565b6000602082019050612b0c6000830184612ae8565b92915050565b6000604051905090565b600080fd5b600080fd5b600080fd5b600080fd5b6000601f19601f8301169050919050565b7f4e487b7100000000000000000000000000000000000000000000000000000000600052604160045260246000fd5b612b7982612b30565b810181811067ffffffffffffffff82111715612b9857612b97612b41565b5b80604052505050565b6000612bab612b12565b9050612bb78282612b70565b919050565b600067ffffffffffffffff821115612bd757612bd6612b41565b5b612be082612b30565b9050602081019050919050565b82818337600083830152505050565b6000612c0f612c0a84612bbc565b612ba1565b905082815260208101848484011115612c2b57612c2a612b2b565b5b612c36848285612bed565b509392505050565b600082601f830112612c5357612c52612b26565b5b8135612c63848260208601612bfc565b91505092915050565b612c7581612ade565b8114612c8057600080fd5b50565b600081359050612c9281612c6c565b92915050565b60008060008060008060c08789031215612cb557612cb4612b1c565b5b600087013567ffffffffffffffff811115612cd357612cd2612b21565b5b612cdf89828a01612c3e565b965050602087013567ffffffffffffffff811115612d0057612cff612b21565b5b612d0c89828a01612c3e565b9550506040612d1d89828a01612c83565b945050606087013567ffffffffffffffff811115612d3e57612d3d612b21565b5b612d4a89828a01612c3e565b9350506080612d5b89828a01612c83565b92505060a087013567ffffffffffffffff811115612d7c57612d7b612b21565b5b612d8889828a01612c3e565b9150509295509295509295565b600073ffffffffffffffffffffffffffffffffffffffff82169050919050565b6000612dc082612d95565b9050919050565b612dd081612db5565b8114612ddb57600080fd5b50565b600081359050612ded81612dc7565b92915050565b60008060008060808587031215612e0d57612e0c612b1c565b5b600085013567ffffffffffffffff811115612e2b57612e2a612b21565b5b612e3787828801612c3e565b9450506020612e4887828801612c83565b9350506040612e5987828801612c83565b9250506060612e6a87828801612dde565b91505092959194509250565b600080600080600060a08688031215612e9257612e91612b1c565b5b6000612ea088828901612c83565b955050602086013567ffffffffffffffff811115612ec157612ec0612b21565b5b612ecd88828901612c3e565b9450506040612ede88828901612c83565b9350506060612eef88828901612dde565b9250506080612f0088828901612c83565b9150509295509295909350565b60008060008060008060c08789031215612f2a57612f29612b1c565b5b6000612f3889828a01612c83565b9650506020612f4989828a01612c83565b955050604087013567ffffffffffffffff811115612f6a57612f69612b21565b5b612f7689828a01612c3e565b9450506060612f8789828a01612c83565b9350506080612f9889828a01612dde565b92505060a0612fa989828a01612c83565b9150509295509295509295565b600081519050919050565b600081905092915050565b60005b83811015612fea578082015181840152602081019050612fcf565b83811115612ff9576000848401525b50505050565b600061300a82612fb6565b6130148185612fc1565b9350613024818560208601612fcc565b80840191505092915050565b600061303c8284612fff565b915081905092915050565b7f4e487b7100000000000000000000000000000000000000000000000000000000600052603260045260246000fd5b7f4e487b7100000000000000000000000000000000000000000000000000000000600052602260045260246000fd5b600060028204905060018216806130bd57607f821691505b6020821081036130d0576130cf613076565b5b50919050565b60008190508160005260206000209050919050565b600081546130f8816130a5565b6131028186612fc1565b9450600182166000811461311d576001811461312e57613161565b60ff19831686528186019350613161565b613137856130d6565b60005b838110156131595781548189015260018201915060208101905061313a565b838801955050505b50505092915050565b600061317682846130eb565b915081905092915050565b7f4e487b7100000000000000000000000000000000000000000000000000000000600052601160045260246000fd5b60006131bb82612ade565b91506131c683612ade565b9250827fffffffffffffffffffffffffffffffffffffffffffffffffffffffffffffffff038211156131fb576131fa613181565b5b828201905092915050565b600061321182612ade565b91507fffffffffffffffffffffffffffffffffffffffffffffffffffffffffffffffff820361324357613242613181565b5b600182019050919050565b600082825260208201905092915050565b7f596f752063616e206e6f742073656e64206d6174657269616c20746f20796f7560008201527f7273656c66000000000000000000000000000000000000000000000000000000602082015250565b60006132bb60258361324e565b91506132c68261325f565b604082019050919050565b600060208201905081810360008301526132ea816132ae565b9050919050565b60006132fc82612ade565b915061330783612ade565b92508282101561331a57613319613181565b5b828203905092915050565b7f596f7520646f6e277420686176652074686973206d6174657269616c206f722060008201527f746865207175616e7469747920796f752073656e74206973206772656174657260208201527f207468616e20746865207175616e7469747920796f75206f776e000000000000604082015250565b60006133a7605a8361324e565b91506133b282613325565b606082019050919050565b600060208201905081810360008301526133d68161339a565b9050919050565b7f4f6e6c79207468652073656e6420746f2061646472657373652063616e20726560008201527f636569766520746865206d6174657269616c0000000000000000000000000000602082015250565b600061343960328361324e565b9150613444826133dd565b604082019050919050565b600060208201905081810360008301526134688161342c565b9050919050565b7f5468652073656e64657220796f7520656e74657265642069732064696666657260008201527f656e742066726f6d207468652073656e646572206f6620746865206d6174657260208201527f69616c7300000000000000000000000000000000000000000000000000000000604082015250565b60006134f160448361324e565b91506134fc8261346f565b606082019050919050565b60006020820190508181036000830152613520816134e4565b9050919050565b7f546865207175616e7469747920796f7520656e7465726564206973206469666660008201527f6572656e742066726f6d20746865207175616e746974792073656e7400000000602082015250565b6000613583603c8361324e565b915061358e82613527565b604082019050919050565b600060208201905081810360008301526135b281613576565b9050919050565b7f596f752063616e6e6f7420656e7465722061207072696365206c6f776572207460008201527f68616e2074686520707572636861736520707269636500000000000000000000602082015250565b600061361560368361324e565b9150613620826135b9565b604082019050919050565b6000602082019050818103600083015261364481613608565b9050919050565b600061365682612ade565b915061366183612ade565b9250817fffffffffffffffffffffffffffffffffffffffffffffffffffffffffffffffff048311821515161561369a57613699613181565b5b828202905092915050565b7f5468652073656e7420616d6f756e74206973206c657373207468616e2074686560008201527f20696e766f696365207072696365000000000000000000000000000000000000602082015250565b6000613701602e8361324e565b915061370c826136a5565b604082019050919050565b60006020820190508181036000830152613730816136f4565b9050919050565b7f4f6e6c79207468652077696e6e696e67206269646465722063616e2073656e6460008201527f20626964206d6174657269616c73000000000000000000000000000000000000602082015250565b6000613793602e8361324e565b915061379e82613737565b604082019050919050565b600060208201905081810360008301526137c281613786565b9050919050565b7f4f6e6c7920746865206f776e6572206f66206269642063616e2072656365697660008201527f6520626964206d6174657269616c730000000000000000000000000000000000602082015250565b6000613825602f8361324e565b9150613830826137c9565b604082019050919050565b6000602082019050818103600083015261385481613818565b9050919050565b60008151905061386a81612dc7565b92915050565b60006020828403121561388657613885612b1c565b5b60006138948482850161385b565b91505092915050565b600067ffffffffffffffff8211156138b8576138b7612b41565b5b602082029050602081019050919050565b600080fd5b60006138e16138dc84612bbc565b612ba1565b9050828152602081018484840111156138fd576138fc612b2b565b5b613908848285612fcc565b509392505050565b600082601f83011261392557613924612b26565b5b81516139358482602086016138ce565b91505092915050565b600061395161394c8461389d565b612ba1565b90508083825260208201905060208402830185811115613974576139736138c9565b5b835b818110156139bb57805167ffffffffffffffff81111561399957613998612b26565b5b8086016139a68982613910565b85526020850194505050602081019050613976565b5050509392505050565b600082601f8301126139da576139d9612b26565b5b81516139ea84826020860161393e565b91505092915050565b600067ffffffffffffffff821115613a0e57613a0d612b41565b5b602082029050602081019050919050565b600081519050613a2e81612c6c565b92915050565b6000613a47613a42846139f3565b612ba1565b90508083825260208201905060208402830185811115613a6a57613a696138c9565b5b835b81811015613a935780613a7f8882613a1f565b845260208401935050602081019050613a6c565b5050509392505050565b600082601f830112613ab257613ab1612b26565b5b8151613ac2848260208601613a34565b91505092915050565b600080600060608486031215613ae457613ae3612b1c565b5b600084015167ffffffffffffffff811115613b0257613b01612b21565b5b613b0e868287016139c5565b935050602084015167ffffffffffffffff811115613b2f57613b2e612b21565b5b613b3b86828701613a9d565b925050604084015167ffffffffffffffff811115613b5c57613b5b612b21565b5b613b6886828701613a9d565b915050925092509256fea26469706673582212201f38d8ec2477db86976a6f68dc66707568603d07ed23d4aec361ef3137c74ae764736f6c634300080d0033",
  "immutableReferences": {},
  "source": "// SPDX-License-Identifier: GPL-3.0\r\npragma solidity >=0.7.0 <0.9.0;\r\n\r\ninterface GetCompanyData {\r\n    function CheckCompanyAuth(address _address) external returns (bool);\r\n    function getCompanyWorkType(address _address) external view returns (string memory);\r\n}\r\n\r\ninterface GetWinnerBidData {\r\n    function getWinner(uint _bidNum) external view returns (address);\r\n    function getWinnerBidDetailes(uint _bidNum) external view returns (string[] memory, uint[] memory, uint[] memory);\r\n}\r\n\r\ninterface GetBidDetailes {\r\n    function receiveBidMaterialData(uint _bidNum) external view returns (address, string[] memory, uint[] memory);\r\n}\r\n\r\ncontract Materials{\r\n    uint public materialInvoiceNum = 0;\r\n\r\n    // The required data\r\n    bool authorized;\r\n    string workType;\r\n\r\n    struct InvoiceMaterial{\r\n        address sendFrom;\r\n        address sendTo;\r\n        string detailes;\r\n        uint quantity;\r\n        uint price;\r\n    }\r\n\r\n    struct Material{\r\n        address producer;\r\n        string materialName;\r\n        string materialDetailes;\r\n        uint materialQuantity;\r\n        string materialUnit;\r\n        uint materialPrice;\r\n        string priceUnit;\r\n    }\r\n\r\n    // Store Materialss detailes by owner\r\n    mapping (address => Material[]) materials;\r\n    mapping (uint => InvoiceMaterial) invoiceMaterials;\r\n\r\n    // Address of contract we need to import\r\n    address CentralAuthorityAddress;\r\n    address CreateBidAddress;\r\n    address BiddingAddress;\r\n\r\n    struct WinnerBidDetailes{\r\n        string[] detailes;\r\n        uint[] quantities;\r\n        uint[] prices;\r\n    }\r\n\r\n    struct ReceiveBidMaterialDetailes{\r\n        address bidOwner;\r\n        string[] receiveDetailes;\r\n        uint[] receiveQuantities;\r\n    }\r\n\r\n    mapping (uint => WinnerBidDetailes) winnerBidDetailes;\r\n    mapping (uint => address) winnerBidder;\r\n\r\n    mapping (uint => ReceiveBidMaterialDetailes) receiveBidMaterialDetailes;\r\n\r\n    constructor(address _CentralAuthorityAddress, address _CreateBidAddress, address _BiddingAddress) {\r\n        CentralAuthorityAddress = _CentralAuthorityAddress;\r\n        CreateBidAddress = _CreateBidAddress;\r\n        BiddingAddress = _BiddingAddress;\r\n    }\r\n\r\n    // Get data from Central Authority contract\r\n    function CheckCompany(address _address) internal {\r\n        authorized = GetCompanyData(CentralAuthorityAddress).CheckCompanyAuth(_address);\r\n    }\r\n\r\n    function getWorkType(address _address) internal {\r\n        workType = GetCompanyData(CentralAuthorityAddress).getCompanyWorkType(_address);\r\n    }\r\n\r\n    function receiveBidMaterialData(uint _bidNum) internal {\r\n        (receiveBidMaterialDetailes[_bidNum].bidOwner, receiveBidMaterialDetailes[_bidNum].receiveDetailes, receiveBidMaterialDetailes[_bidNum].receiveQuantities) = GetBidDetailes(CreateBidAddress).receiveBidMaterialData(_bidNum);\r\n    }\r\n// -------------------------------------------------------\r\n    function winnerBiddata(uint _bidNum) internal {\r\n        (winnerBidDetailes[_bidNum].detailes, winnerBidDetailes[_bidNum].quantities, winnerBidDetailes[_bidNum].prices) = GetWinnerBidData(BiddingAddress).getWinnerBidDetailes(_bidNum);\r\n    }\r\n\r\n    function getWinnerBidder(uint _bidNum) internal {\r\n        winnerBidder[_bidNum] = GetWinnerBidData(BiddingAddress).getWinner(_bidNum);\r\n    }\r\n\r\n    // Specify who can use the functions\r\n    modifier onlyProducer(){\r\n        getWorkType(msg.sender);\r\n        require(keccak256(abi.encodePacked(workType)) == keccak256(abi.encodePacked(\"Producer\")) || keccak256(abi.encodePacked(workType)) == keccak256(abi.encodePacked(\"Manufacturer\")), \"Only Producer and Manufacturer can add product\");\r\n        _;\r\n    }    \r\n\r\n    modifier onlyAuth(){\r\n        CheckCompany(msg.sender);\r\n        require(authorized == true, \"Only authorized can add product\");\r\n        _;\r\n    }\r\n\r\n    function addMaterial(string memory _name, string memory _detailes, uint _quantity, string memory _materialUnit, uint _price, string memory _priceUnit) public {\r\n        bool found;\r\n        Material[] storage material = materials[msg.sender];        \r\n        if (material.length == 0) {\r\n            materials[msg.sender].push(Material(msg.sender, _name, _detailes, _quantity, _materialUnit, _price, _priceUnit));\r\n        } else {\r\n            for (uint i = 0; i< material.length; i++) \r\n            {\r\n                if (keccak256(abi.encodePacked(material[i].materialName)) == keccak256(abi.encodePacked(_name))\r\n                && keccak256(abi.encodePacked(material[i].materialDetailes)) == keccak256(abi.encodePacked(_detailes))\r\n                && keccak256(abi.encodePacked(material[i].materialUnit)) == keccak256(abi.encodePacked(_materialUnit))\r\n                && material[i].materialPrice == _price\r\n                && keccak256(abi.encodePacked(material[i].priceUnit)) == keccak256(abi.encodePacked(_priceUnit))) {\r\n                    material[i].materialQuantity += _quantity;\r\n                    found = true;\r\n                    break;\r\n                } \r\n            }\r\n\r\n            if (!found) {\r\n                materials[msg.sender].push(Material(msg.sender, _name, _detailes, _quantity, _materialUnit, _price, _priceUnit));\r\n            }\r\n        }\r\n    }\r\n\r\n    function sendMaterial(string memory _detailes, uint _quantity, uint _price, address _sendTo) public {\r\n        require(msg.sender != _sendTo, \"You can not send material to yourself\");\r\n\r\n        Material[] storage senderMaterial = materials[msg.sender];\r\n        bool sent;\r\n        for (uint i = 0; i< senderMaterial.length; i++) \r\n        {\r\n            if (keccak256(abi.encodePacked(senderMaterial[i].materialDetailes)) == keccak256(abi.encodePacked(_detailes)) && _quantity <= senderMaterial[i].materialQuantity && senderMaterial[i].materialPrice == _price) {\r\n                materialInvoiceNum++;\r\n\r\n                invoiceMaterials[materialInvoiceNum].sendFrom = msg.sender;\r\n                invoiceMaterials[materialInvoiceNum].sendTo = _sendTo;\r\n                invoiceMaterials[materialInvoiceNum].detailes = _detailes;\r\n                invoiceMaterials[materialInvoiceNum].quantity = _quantity;\r\n                invoiceMaterials[materialInvoiceNum].price = _price;\r\n\r\n                senderMaterial[i].materialQuantity = senderMaterial[i].materialQuantity - _quantity;\r\n                sent = true;\r\n                break;\r\n            }\r\n        }\r\n        if (!sent) {\r\n            revert(\"You don't have this material or the quantity you sent is greater than the quantity you own\");\r\n        }\r\n    }\r\n\r\n    function receiveMaterial(uint _materialInvoiceNum,string memory _detailes, uint _quantity, address _sendFrom, uint _newPrice) public payable {\r\n        require(msg.sender == invoiceMaterials[_materialInvoiceNum].sendTo, \"Only the send to addresse can receive the material\");\r\n        require(_sendFrom == invoiceMaterials[_materialInvoiceNum].sendFrom, \"The sender you entered is different from the sender of the materials\");\r\n        require(_quantity == invoiceMaterials[_materialInvoiceNum].quantity, \"The quantity you entered is different from the quantity sent\");\r\n        require(_newPrice >= invoiceMaterials[_materialInvoiceNum].price, \"You cannot enter a price lower than the purchase price\");\r\n        \r\n        Material[] storage senderMaterial = materials[_sendFrom];\r\n        for (uint i = 0; i< senderMaterial.length; i++) \r\n        {\r\n            if (keccak256(abi.encodePacked(senderMaterial[i].materialDetailes)) == keccak256(abi.encodePacked(_detailes))) {\r\n                uint invoicePrice = invoiceMaterials[materialInvoiceNum].quantity * invoiceMaterials[materialInvoiceNum].price;\r\n                require(msg.value >= invoicePrice, \"The sent amount is less than the invoice price\");\r\n\r\n                Material[] storage receiverMaterial = materials[msg.sender];\r\n                if (receiverMaterial.length == 0) {\r\n                    materials[msg.sender].push(Material(senderMaterial[i].producer, senderMaterial[i].materialName, _detailes, _quantity, senderMaterial[i].materialUnit, _newPrice, senderMaterial[i].priceUnit));\r\n                } else {\r\n                    for (uint j =0; j < receiverMaterial.length; j++) \r\n                    {\r\n                        if (keccak256(abi.encodePacked(receiverMaterial[j].materialDetailes)) == keccak256(abi.encodePacked(_detailes)) && receiverMaterial[j].materialPrice == _newPrice) {\r\n                            receiverMaterial[j].materialQuantity = receiverMaterial[j].materialQuantity + _quantity;\r\n                        } else {\r\n                            materials[msg.sender].push(Material(senderMaterial[i].producer, senderMaterial[i].materialName, _detailes, _quantity, senderMaterial[i].materialUnit, _newPrice, senderMaterial[i].priceUnit));\r\n                        }\r\n                    }\r\n                }\r\n                payable(invoiceMaterials[_materialInvoiceNum].sendFrom).transfer(invoicePrice);\r\n            } else {\r\n                senderMaterial[i].materialQuantity = senderMaterial[i].materialQuantity + _quantity;\r\n            }\r\n        }\r\n    }\r\n\r\n    function receiveBidMaterial(uint _bidNum, uint _materialInvoiceNum,string memory _detailes, uint _quantity, address _sendFrom, uint _newPrice) public payable {\r\n        getWinnerBidder(_bidNum);\r\n        require(_sendFrom == winnerBidder[_bidNum], \"Only the winning bidder can send bid materials\");\r\n        require(msg.sender == receiveBidMaterialDetailes[_bidNum].bidOwner, \"Only the owner of bid can receive bid materials\");\r\n        require(msg.sender == invoiceMaterials[_materialInvoiceNum].sendTo, \"Only the send to addresse can receive the material\");\r\n        require(_sendFrom == invoiceMaterials[_materialInvoiceNum].sendFrom, \"The sender you entered is different from the sender of the materials\");\r\n        require(_quantity == invoiceMaterials[_materialInvoiceNum].quantity, \"The quantity you entered is different from the quantity sent\");\r\n        \r\n        winnerBiddata(_bidNum);\r\n        uint dataCount = winnerBidDetailes[_bidNum].detailes.length;\r\n        Material[] storage senderMaterial = materials[_sendFrom];\r\n        for (uint i = 0; i< senderMaterial.length; i++) \r\n        {\r\n            if (keccak256(abi.encodePacked(senderMaterial[i].materialDetailes)) == keccak256(abi.encodePacked(_detailes))) {\r\n                for (uint j = 0; j < dataCount; j++) \r\n                {\r\n                    if (keccak256(abi.encodePacked(senderMaterial[i].materialDetailes)) == keccak256(abi.encodePacked(winnerBidDetailes[_bidNum].detailes[j]))) {\r\n                        uint materialInvoicePrice = invoiceMaterials[_materialInvoiceNum].quantity * winnerBidDetailes[_bidNum].prices[j];\r\n                        require(msg.value >= materialInvoicePrice, \"The sent amount is less than the invoice price\");\r\n                        Material[] storage receiverMaterial = materials[msg.sender];\r\n                        if (receiverMaterial.length == 0) {\r\n                            materials[msg.sender].push(Material(senderMaterial[i].producer, senderMaterial[i].materialName, _detailes, _quantity, senderMaterial[i].materialUnit, _newPrice, senderMaterial[i].priceUnit));\r\n                        } else {\r\n                            for (uint k =0; k < receiverMaterial.length; k++) \r\n                            {\r\n                                if (keccak256(abi.encodePacked(receiverMaterial[k].materialDetailes)) == keccak256(abi.encodePacked(_detailes)) && receiverMaterial[k].materialPrice == _newPrice) {\r\n                                    receiverMaterial[k].materialQuantity = receiverMaterial[k].materialQuantity + _quantity;\r\n                                } else {\r\n                                    materials[msg.sender].push(Material(senderMaterial[i].producer, senderMaterial[i].materialName, _detailes, _quantity, senderMaterial[i].materialUnit, _newPrice, senderMaterial[i].priceUnit));\r\n                                }\r\n                            }\r\n                        }\r\n                        payable(invoiceMaterials[_materialInvoiceNum].sendFrom).transfer(materialInvoicePrice);\r\n                    }\r\n                }\r\n            } else {\r\n                senderMaterial[i].materialQuantity = senderMaterial[i].materialQuantity + _quantity;\r\n            }\r\n        }\r\n    }\r\n}",
  "sourcePath": "D:\\Programming\\Projects\\BlockChain\\Web\\CSC\\contracts\\Materials.sol",
  "compiler": {
    "name": "solc",
    "version": "0.8.13+commit.abaa5c0e.Emscripten.clang"
  },
  "schemaVersion": "3.4.16",
  "updatedAt": "2024-04-02T05:47:34.657Z",
  "networkType": "ethereum",
  "devdoc": {
    "kind": "dev",
    "methods": {},
    "version": 1
  },
  "userdoc": {
    "kind": "user",
    "methods": {},
    "version": 1
  }
}